{"contracts/FlashArbitrageur.sol":{"FlashArbitrageur":{"abi":[{"inputs":[{"internalType":"address","name":"addressesProvider","type":"address"}],"stateMutability":"nonpayable","type":"constructor"},{"inputs":[],"name":"DeadlineExpired","type":"error"},{"inputs":[],"name":"NotPool","type":"error"},{"inputs":[],"name":"Unprofitable","type":"error"},{"anonymous":false,"inputs":[{"indexed":true,"internalType":"address","name":"previousOwner","type":"address"},{"indexed":true,"internalType":"address","name":"newOwner","type":"address"}],"name":"OwnershipTransferred","type":"event"},{"anonymous":false,"inputs":[{"indexed":true,"internalType":"address","name":"asset","type":"address"},{"indexed":false,"internalType":"uint256","name":"amountBorrowed","type":"uint256"},{"indexed":false,"internalType":"uint256","name":"premium","type":"uint256"},{"indexed":false,"internalType":"uint256","name":"profitSent","type":"uint256"}],"name":"ProfitRealized","type":"event"},{"inputs":[],"name":"ADDRESSES_PROVIDER","outputs":[{"internalType":"contract IPoolAddressesProvider","name":"","type":"address"}],"stateMutability":"view","type":"function"},{"inputs":[],"name":"POOL","outputs":[{"internalType":"contract IPool","name":"","type":"address"}],"stateMutability":"view","type":"function"},{"inputs":[{"internalType":"address","name":"asset","type":"address"},{"internalType":"uint256","name":"amount","type":"uint256"},{"internalType":"uint256","name":"premium","type":"uint256"},{"internalType":"address","name":"","type":"address"},{"internalType":"bytes","name":"params","type":"bytes"}],"name":"executeOperation","outputs":[{"internalType":"bool","name":"","type":"bool"}],"stateMutability":"nonpayable","type":"function"},{"inputs":[{"internalType":"address","name":"asset","type":"address"},{"internalType":"uint256","name":"amount","type":"uint256"},{"components":[{"internalType":"address","name":"target","type":"address"},{"internalType":"bytes","name":"data","type":"bytes"},{"internalType":"uint256","name":"value","type":"uint256"}],"internalType":"struct FlashArbitrageur.Swap[]","name":"swaps","type":"tuple[]"},{"internalType":"uint256","name":"deadline","type":"uint256"}],"name":"initiateFlashArb","outputs":[],"stateMutability":"nonpayable","type":"function"},{"inputs":[],"name":"owner","outputs":[{"internalType":"address","name":"","type":"address"}],"stateMutability":"view","type":"function"},{"stateMutability":"payable","type":"receive"}],"evm":{"bytecode":{"linkReferences":{},"object":"60c060405234801561001057600080fd5b50604051611a25380380611a258339818101604052810190610032919061024a565b6100413361012360201b60201c565b60008190508073ffffffffffffffffffffffffffffffffffffffff1660a08173ffffffffffffffffffffffffffffffffffffffff16815250508073ffffffffffffffffffffffffffffffffffffffff1663026b1d5f6040518163ffffffff1660e01b8152600401602060405180830381865afa1580156100c5573d6000803e3d6000fd5b505050506040513d601f19601f820116820180604052508101906100e9919061024a565b73ffffffffffffffffffffffffffffffffffffffff1660808173ffffffffffffffffffffffffffffffffffffffff16815250505050610277565b60008060009054906101000a900473ffffffffffffffffffffffffffffffffffffffff169050816000806101000a81548173ffffffffffffffffffffffffffffffffffffffff021916908373ffffffffffffffffffffffffffffffffffffffff1602179055508173ffffffffffffffffffffffffffffffffffffffff168173ffffffffffffffffffffffffffffffffffffffff167f8be0079c531659141344cd1fd0a4f28419497f9722a3daafe3b4186f6b6457e060405160405180910390a35050565b600080fd5b600073ffffffffffffffffffffffffffffffffffffffff82169050919050565b6000610217826101ec565b9050919050565b6102278161020c565b811461023257600080fd5b50565b6000815190506102448161021e565b92915050565b6000602082840312156102605761025f6101e7565b5b600061026e84828501610235565b91505092915050565b60805160a0516117746102b16000396000610143015260008181610169015281816104a5015281816106a7015261081701526117746000f3fe60806040526004361061004e5760003560e01c80630542975c1461005a5780631b11d0ff146100855780637535d246146100c25780638da5cb5b146100ed578063fdaec3101461011857610055565b3661005557005b600080fd5b34801561006657600080fd5b5061006f610141565b60405161007c9190610938565b60405180910390f35b34801561009157600080fd5b506100ac60048036038101906100a79190610a40565b610165565b6040516100b99190610af5565b60405180910390f35b3480156100ce57600080fd5b506100d76106a5565b6040516100e49190610b31565b60405180910390f35b3480156100f957600080fd5b506101026106c9565b60405161010f9190610b5b565b60405180910390f35b34801561012457600080fd5b5061013f600480360381019061013a9190610bcc565b6106f2565b005b7f000000000000000000000000000000000000000000000000000000000000000081565b60007f000000000000000000000000000000000000000000000000000000000000000073ffffffffffffffffffffffffffffffffffffffff163373ffffffffffffffffffffffffffffffffffffffff16146101ec576040517f6f61f64100000000000000000000000000000000000000000000000000000000815260040160405180910390fd5b600060015414610231576040517f08c379a000000000000000000000000000000000000000000000000000000000815260040161022890610cb1565b60405180910390fd5b60018081905550600080848481019061024a9190610f7d565b9150915080421115610288576040517f1ab7da6b00000000000000000000000000000000000000000000000000000000815260040160405180910390fd5b60005b82518110156103bf576000808483815181106102aa576102a9610fd9565b5b60200260200101516000015173ffffffffffffffffffffffffffffffffffffffff168584815181106102df576102de610fd9565b5b6020026020010151604001518685815181106102fe576102fd610fd9565b5b6020026020010151602001516040516103179190611079565b60006040518083038185875af1925050503d8060008114610354576040519150601f19603f3d011682016040523d82523d6000602084013e610359565b606091505b5091509150816103b05760008151111561037557805160208201fd5b6040517f08c379a00000000000000000000000000000000000000000000000000000000081526004016103a7906110dc565b60405180910390fd5b5050808060010191505061028b565b5060008973ffffffffffffffffffffffffffffffffffffffff166370a08231306040518263ffffffff1660e01b81526004016103fb9190610b5b565b602060405180830381865afa158015610418573d6000803e3d6000fd5b505050506040513d601f19601f8201168201806040525081019061043c9190611111565b90506000888a61044c919061116d565b9050808211610487576040517f0b4cb19900000000000000000000000000000000000000000000000000000000815260040160405180910390fd5b8a73ffffffffffffffffffffffffffffffffffffffff1663095ea7b37f0000000000000000000000000000000000000000000000000000000000000000836040518363ffffffff1660e01b81526004016104e29291906111b0565b6020604051808303816000875af1158015610501573d6000803e3d6000fd5b505050506040513d601f19601f820116820180604052508101906105259190611205565b610564576040517f08c379a000000000000000000000000000000000000000000000000000000000815260040161055b9061127e565b60405180910390fd5b60008183610572919061129e565b90508b73ffffffffffffffffffffffffffffffffffffffff1663a9059cbb6105986106c9565b836040518363ffffffff1660e01b81526004016105b69291906111b0565b6020604051808303816000875af11580156105d5573d6000803e3d6000fd5b505050506040513d601f19601f820116820180604052508101906105f99190611205565b610638576040517f08c379a000000000000000000000000000000000000000000000000000000000815260040161062f9061131e565b60405180910390fd5b8b73ffffffffffffffffffffffffffffffffffffffff167ffd5fd7ac9f04bce793f6342899f2b330259643496c658eb97d0da1b511ad3c908c8c846040516106829392919061133e565b60405180910390a260019550505050505060006001819055509695505050505050565b7f000000000000000000000000000000000000000000000000000000000000000081565b60008060009054906101000a900473ffffffffffffffffffffffffffffffffffffffff16905090565b3373ffffffffffffffffffffffffffffffffffffffff166107116106c9565b73ffffffffffffffffffffffffffffffffffffffff1614610767576040517f08c379a000000000000000000000000000000000000000000000000000000000815260040161075e906113c1565b60405180910390fd5b6000600154146107ac576040517f08c379a00000000000000000000000000000000000000000000000000000000081526004016107a390610cb1565b60405180910390fd5b60018081905550804211156107ed576040517f1ab7da6b00000000000000000000000000000000000000000000000000000000815260040160405180910390fd5b60008383836040516020016108049392919061161f565b60405160208183030381529060405290507f000000000000000000000000000000000000000000000000000000000000000073ffffffffffffffffffffffffffffffffffffffff166342b0b77c3088888560006040518663ffffffff1660e01b81526004016108779594939291906116e4565b600060405180830381600087803b15801561089157600080fd5b505af11580156108a5573d6000803e3d6000fd5b505050505060006001819055505050505050565b600073ffffffffffffffffffffffffffffffffffffffff82169050919050565b6000819050919050565b60006108fe6108f96108f4846108b9565b6108d9565b6108b9565b9050919050565b6000610910826108e3565b9050919050565b600061092282610905565b9050919050565b61093281610917565b82525050565b600060208201905061094d6000830184610929565b92915050565b6000604051905090565b600080fd5b600080fd5b6000610972826108b9565b9050919050565b61098281610967565b811461098d57600080fd5b50565b60008135905061099f81610979565b92915050565b6000819050919050565b6109b8816109a5565b81146109c357600080fd5b50565b6000813590506109d5816109af565b92915050565b600080fd5b600080fd5b600080fd5b60008083601f840112610a00576109ff6109db565b5b8235905067ffffffffffffffff811115610a1d57610a1c6109e0565b5b602083019150836001820283011115610a3957610a386109e5565b5b9250929050565b60008060008060008060a08789031215610a5d57610a5c61095d565b5b6000610a6b89828a01610990565b9650506020610a7c89828a016109c6565b9550506040610a8d89828a016109c6565b9450506060610a9e89828a01610990565b935050608087013567ffffffffffffffff811115610abf57610abe610962565b5b610acb89828a016109ea565b92509250509295509295509295565b60008115159050919050565b610aef81610ada565b82525050565b6000602082019050610b0a6000830184610ae6565b92915050565b6000610b1b82610905565b9050919050565b610b2b81610b10565b82525050565b6000602082019050610b466000830184610b22565b92915050565b610b5581610967565b82525050565b6000602082019050610b706000830184610b4c565b92915050565b60008083601f840112610b8c57610b8b6109db565b5b8235905067ffffffffffffffff811115610ba957610ba86109e0565b5b602083019150836020820283011115610bc557610bc46109e5565b5b9250929050565b600080600080600060808688031215610be857610be761095d565b5b6000610bf688828901610990565b9550506020610c07888289016109c6565b945050604086013567ffffffffffffffff811115610c2857610c27610962565b5b610c3488828901610b76565b93509350506060610c47888289016109c6565b9150509295509295909350565b600082825260208201905092915050565b7f5245454e54455200000000000000000000000000000000000000000000000000600082015250565b6000610c9b600783610c54565b9150610ca682610c65565b602082019050919050565b60006020820190508181036000830152610cca81610c8e565b9050919050565b6000601f19601f8301169050919050565b7f4e487b7100000000000000000000000000000000000000000000000000000000600052604160045260246000fd5b610d1a82610cd1565b810181811067ffffffffffffffff82111715610d3957610d38610ce2565b5b80604052505050565b6000610d4c610953565b9050610d588282610d11565b919050565b600067ffffffffffffffff821115610d7857610d77610ce2565b5b602082029050602081019050919050565b600080fd5b600080fd5b600080fd5b600067ffffffffffffffff821115610db357610db2610ce2565b5b610dbc82610cd1565b9050602081019050919050565b82818337600083830152505050565b6000610deb610de684610d98565b610d42565b905082815260208101848484011115610e0757610e06610d93565b5b610e12848285610dc9565b509392505050565b600082601f830112610e2f57610e2e6109db565b5b8135610e3f848260208601610dd8565b91505092915050565b600060608284031215610e5e57610e5d610d89565b5b610e686060610d42565b90506000610e7884828501610990565b600083015250602082013567ffffffffffffffff811115610e9c57610e9b610d8e565b5b610ea884828501610e1a565b6020830152506040610ebc848285016109c6565b60408301525092915050565b6000610edb610ed684610d5d565b610d42565b90508083825260208201905060208402830185811115610efe57610efd6109e5565b5b835b81811015610f4557803567ffffffffffffffff811115610f2357610f226109db565b5b808601610f308982610e48565b85526020850194505050602081019050610f00565b5050509392505050565b600082601f830112610f6457610f636109db565b5b8135610f74848260208601610ec8565b91505092915050565b60008060408385031215610f9457610f9361095d565b5b600083013567ffffffffffffffff811115610fb257610fb1610962565b5b610fbe85828601610f4f565b9250506020610fcf858286016109c6565b9150509250929050565b7f4e487b7100000000000000000000000000000000000000000000000000000000600052603260045260246000fd5b600081519050919050565b600081905092915050565b60005b8381101561103c578082015181840152602081019050611021565b60008484015250505050565b600061105382611008565b61105d8185611013565b935061106d81856020860161101e565b80840191505092915050565b60006110858284611048565b915081905092915050565b7f4445582063616c6c206661696c65640000000000000000000000000000000000600082015250565b60006110c6600f83610c54565b91506110d182611090565b602082019050919050565b600060208201905081810360008301526110f5816110b9565b9050919050565b60008151905061110b816109af565b92915050565b6000602082840312156111275761112661095d565b5b6000611135848285016110fc565b91505092915050565b7f4e487b7100000000000000000000000000000000000000000000000000000000600052601160045260246000fd5b6000611178826109a5565b9150611183836109a5565b925082820190508082111561119b5761119a61113e565b5b92915050565b6111aa816109a5565b82525050565b60006040820190506111c56000830185610b4c565b6111d260208301846111a1565b9392505050565b6111e281610ada565b81146111ed57600080fd5b50565b6000815190506111ff816111d9565b92915050565b60006020828403121561121b5761121a61095d565b5b6000611229848285016111f0565b91505092915050565b7f417070726f7665206661696c6564000000000000000000000000000000000000600082015250565b6000611268600e83610c54565b915061127382611232565b602082019050919050565b600060208201905081810360008301526112978161125b565b9050919050565b60006112a9826109a5565b91506112b4836109a5565b92508282039050818111156112cc576112cb61113e565b5b92915050565b7f50726f666974207472616e73666572206661696c656400000000000000000000600082015250565b6000611308601683610c54565b9150611313826112d2565b602082019050919050565b60006020820190508181036000830152611337816112fb565b9050919050565b600060608201905061135360008301866111a1565b61136060208301856111a1565b61136d60408301846111a1565b949350505050565b7f4f776e61626c653a2063616c6c6572206973206e6f7420746865206f776e6572600082015250565b60006113ab602083610c54565b91506113b682611375565b602082019050919050565b600060208201905081810360008301526113da8161139e565b9050919050565b600082825260208201905092915050565b6000819050919050565b600061140b6020840184610990565b905092915050565b61141c81610967565b82525050565b600080fd5b600080fd5b600080fd5b6000808335600160200384360303811261144e5761144d61142c565b5b83810192508235915060208301925067ffffffffffffffff82111561147657611475611422565b5b60018202360383131561148c5761148b611427565b5b509250929050565b600082825260208201905092915050565b60006114b18385611494565b93506114be838584610dc9565b6114c783610cd1565b840190509392505050565b60006114e160208401846109c6565b905092915050565b6114f2816109a5565b82525050565b60006060830161150b60008401846113fc565b6115186000860182611413565b506115266020840184611431565b85830360208701526115398382846114a5565b9250505061154a60408401846114d2565b61155760408601826114e9565b508091505092915050565b600061156e83836114f8565b905092915050565b6000823560016060038336030381126115925761159161142c565b5b82810191505092915050565b6000602082019050919050565b60006115b783856113e1565b9350836020840285016115c9846113f2565b8060005b8781101561160d5784840389526115e48284611576565b6115ee8582611562565b94506115f98361159e565b925060208a019950506001810190506115cd565b50829750879450505050509392505050565b6000604082019050818103600083015261163a8185876115ab565b905061164960208301846111a1565b949350505050565b600082825260208201905092915050565b600061166d82611008565b6116778185611651565b935061168781856020860161101e565b61169081610cd1565b840191505092915050565b6000819050919050565b600061ffff82169050919050565b60006116ce6116c96116c48461169b565b6108d9565b6116a5565b9050919050565b6116de816116b3565b82525050565b600060a0820190506116f96000830188610b4c565b6117066020830187610b4c565b61171360408301866111a1565b81810360608301526117258185611662565b905061173460808301846116d5565b969550505050505056fea26469706673582212203a89d1500dde2e219b0fc1f4ef21a49fda808e8310e861fe2a5d724d4d31dcff64736f6c634300081c0033","opcodes":"PUSH1 0xC0 PUSH1 0x40 MSTORE CALLVALUE DUP1 ISZERO PUSH2 0x10 JUMPI PUSH1 0x0 DUP1 REVERT JUMPDEST POP PUSH1 0x40 MLOAD PUSH2 0x1A25 CODESIZE SUB DUP1 PUSH2 0x1A25 DUP4 CODECOPY DUP2 DUP2 ADD PUSH1 0x40 MSTORE DUP2 ADD SWAP1 PUSH2 0x32 SWAP2 SWAP1 PUSH2 0x24A JUMP JUMPDEST PUSH2 0x41 CALLER PUSH2 0x123 PUSH1 0x20 SHL PUSH1 0x20 SHR JUMP JUMPDEST PUSH1 0x0 DUP2 SWAP1 POP DUP1 PUSH20 0xFFFFFFFFFFFFFFFFFFFFFFFFFFFFFFFFFFFFFFFF AND PUSH1 0xA0 DUP2 PUSH20 0xFFFFFFFFFFFFFFFFFFFFFFFFFFFFFFFFFFFFFFFF AND DUP2 MSTORE POP POP DUP1 PUSH20 0xFFFFFFFFFFFFFFFFFFFFFFFFFFFFFFFFFFFFFFFF AND PUSH4 0x26B1D5F PUSH1 0x40 MLOAD DUP2 PUSH4 0xFFFFFFFF AND PUSH1 0xE0 SHL DUP2 MSTORE PUSH1 0x4 ADD PUSH1 0x20 PUSH1 0x40 MLOAD DUP1 DUP4 SUB DUP2 DUP7 GAS STATICCALL ISZERO DUP1 ISZERO PUSH2 0xC5 JUMPI RETURNDATASIZE PUSH1 0x0 DUP1 RETURNDATACOPY RETURNDATASIZE PUSH1 0x0 REVERT JUMPDEST POP POP POP POP PUSH1 0x40 MLOAD RETURNDATASIZE PUSH1 0x1F NOT PUSH1 0x1F DUP3 ADD AND DUP3 ADD DUP1 PUSH1 0x40 MSTORE POP DUP2 ADD SWAP1 PUSH2 0xE9 SWAP2 SWAP1 PUSH2 0x24A JUMP JUMPDEST PUSH20 0xFFFFFFFFFFFFFFFFFFFFFFFFFFFFFFFFFFFFFFFF AND PUSH1 0x80 DUP2 PUSH20 0xFFFFFFFFFFFFFFFFFFFFFFFFFFFFFFFFFFFFFFFF AND DUP2 MSTORE POP POP POP POP PUSH2 0x277 JUMP JUMPDEST PUSH1 0x0 DUP1 PUSH1 0x0 SWAP1 SLOAD SWAP1 PUSH2 0x100 EXP SWAP1 DIV PUSH20 0xFFFFFFFFFFFFFFFFFFFFFFFFFFFFFFFFFFFFFFFF AND SWAP1 POP DUP2 PUSH1 0x0 DUP1 PUSH2 0x100 EXP DUP2 SLOAD DUP2 PUSH20 0xFFFFFFFFFFFFFFFFFFFFFFFFFFFFFFFFFFFFFFFF MUL NOT AND SWAP1 DUP4 PUSH20 0xFFFFFFFFFFFFFFFFFFFFFFFFFFFFFFFFFFFFFFFF AND MUL OR SWAP1 SSTORE POP DUP2 PUSH20 0xFFFFFFFFFFFFFFFFFFFFFFFFFFFFFFFFFFFFFFFF AND DUP2 PUSH20 0xFFFFFFFFFFFFFFFFFFFFFFFFFFFFFFFFFFFFFFFF AND PUSH32 0x8BE0079C531659141344CD1FD0A4F28419497F9722A3DAAFE3B4186F6B6457E0 PUSH1 0x40 MLOAD PUSH1 0x40 MLOAD DUP1 SWAP2 SUB SWAP1 LOG3 POP POP JUMP JUMPDEST PUSH1 0x0 DUP1 REVERT JUMPDEST PUSH1 0x0 PUSH20 0xFFFFFFFFFFFFFFFFFFFFFFFFFFFFFFFFFFFFFFFF DUP3 AND SWAP1 POP SWAP2 SWAP1 POP JUMP JUMPDEST PUSH1 0x0 PUSH2 0x217 DUP3 PUSH2 0x1EC JUMP JUMPDEST SWAP1 POP SWAP2 SWAP1 POP JUMP JUMPDEST PUSH2 0x227 DUP2 PUSH2 0x20C JUMP JUMPDEST DUP2 EQ PUSH2 0x232 JUMPI PUSH1 0x0 DUP1 REVERT JUMPDEST POP JUMP JUMPDEST PUSH1 0x0 DUP2 MLOAD SWAP1 POP PUSH2 0x244 DUP2 PUSH2 0x21E JUMP JUMPDEST SWAP3 SWAP2 POP POP JUMP JUMPDEST PUSH1 0x0 PUSH1 0x20 DUP3 DUP5 SUB SLT ISZERO PUSH2 0x260 JUMPI PUSH2 0x25F PUSH2 0x1E7 JUMP JUMPDEST JUMPDEST PUSH1 0x0 PUSH2 0x26E DUP5 DUP3 DUP6 ADD PUSH2 0x235 JUMP JUMPDEST SWAP2 POP POP SWAP3 SWAP2 POP POP JUMP JUMPDEST PUSH1 0x80 MLOAD PUSH1 0xA0 MLOAD PUSH2 0x1774 PUSH2 0x2B1 PUSH1 0x0 CODECOPY PUSH1 0x0 PUSH2 0x143 ADD MSTORE PUSH1 0x0 DUP2 DUP2 PUSH2 0x169 ADD MSTORE DUP2 DUP2 PUSH2 0x4A5 ADD MSTORE DUP2 DUP2 PUSH2 0x6A7 ADD MSTORE PUSH2 0x817 ADD MSTORE PUSH2 0x1774 PUSH1 0x0 RETURN INVALID PUSH1 0x80 PUSH1 0x40 MSTORE PUSH1 0x4 CALLDATASIZE LT PUSH2 0x4E JUMPI PUSH1 0x0 CALLDATALOAD PUSH1 0xE0 SHR DUP1 PUSH4 0x542975C EQ PUSH2 0x5A JUMPI DUP1 PUSH4 0x1B11D0FF EQ PUSH2 0x85 JUMPI DUP1 PUSH4 0x7535D246 EQ PUSH2 0xC2 JUMPI DUP1 PUSH4 0x8DA5CB5B EQ PUSH2 0xED JUMPI DUP1 PUSH4 0xFDAEC310 EQ PUSH2 0x118 JUMPI PUSH2 0x55 JUMP JUMPDEST CALLDATASIZE PUSH2 0x55 JUMPI STOP JUMPDEST PUSH1 0x0 DUP1 REVERT JUMPDEST CALLVALUE DUP1 ISZERO PUSH2 0x66 JUMPI PUSH1 0x0 DUP1 REVERT JUMPDEST POP PUSH2 0x6F PUSH2 0x141 JUMP JUMPDEST PUSH1 0x40 MLOAD PUSH2 0x7C SWAP2 SWAP1 PUSH2 0x938 JUMP JUMPDEST PUSH1 0x40 MLOAD DUP1 SWAP2 SUB SWAP1 RETURN JUMPDEST CALLVALUE DUP1 ISZERO PUSH2 0x91 JUMPI PUSH1 0x0 DUP1 REVERT JUMPDEST POP PUSH2 0xAC PUSH1 0x4 DUP1 CALLDATASIZE SUB DUP2 ADD SWAP1 PUSH2 0xA7 SWAP2 SWAP1 PUSH2 0xA40 JUMP JUMPDEST PUSH2 0x165 JUMP JUMPDEST PUSH1 0x40 MLOAD PUSH2 0xB9 SWAP2 SWAP1 PUSH2 0xAF5 JUMP JUMPDEST PUSH1 0x40 MLOAD DUP1 SWAP2 SUB SWAP1 RETURN JUMPDEST CALLVALUE DUP1 ISZERO PUSH2 0xCE JUMPI PUSH1 0x0 DUP1 REVERT JUMPDEST POP PUSH2 0xD7 PUSH2 0x6A5 JUMP JUMPDEST PUSH1 0x40 MLOAD PUSH2 0xE4 SWAP2 SWAP1 PUSH2 0xB31 JUMP JUMPDEST PUSH1 0x40 MLOAD DUP1 SWAP2 SUB SWAP1 RETURN JUMPDEST CALLVALUE DUP1 ISZERO PUSH2 0xF9 JUMPI PUSH1 0x0 DUP1 REVERT JUMPDEST POP PUSH2 0x102 PUSH2 0x6C9 JUMP JUMPDEST PUSH1 0x40 MLOAD PUSH2 0x10F SWAP2 SWAP1 PUSH2 0xB5B JUMP JUMPDEST PUSH1 0x40 MLOAD DUP1 SWAP2 SUB SWAP1 RETURN JUMPDEST CALLVALUE DUP1 ISZERO PUSH2 0x124 JUMPI PUSH1 0x0 DUP1 REVERT JUMPDEST POP PUSH2 0x13F PUSH1 0x4 DUP1 CALLDATASIZE SUB DUP2 ADD SWAP1 PUSH2 0x13A SWAP2 SWAP1 PUSH2 0xBCC JUMP JUMPDEST PUSH2 0x6F2 JUMP JUMPDEST STOP JUMPDEST PUSH32 0x0 DUP2 JUMP JUMPDEST PUSH1 0x0 PUSH32 0x0 PUSH20 0xFFFFFFFFFFFFFFFFFFFFFFFFFFFFFFFFFFFFFFFF AND CALLER PUSH20 0xFFFFFFFFFFFFFFFFFFFFFFFFFFFFFFFFFFFFFFFF AND EQ PUSH2 0x1EC JUMPI PUSH1 0x40 MLOAD PUSH32 0x6F61F64100000000000000000000000000000000000000000000000000000000 DUP2 MSTORE PUSH1 0x4 ADD PUSH1 0x40 MLOAD DUP1 SWAP2 SUB SWAP1 REVERT JUMPDEST PUSH1 0x0 PUSH1 0x1 SLOAD EQ PUSH2 0x231 JUMPI PUSH1 0x40 MLOAD PUSH32 0x8C379A000000000000000000000000000000000000000000000000000000000 DUP2 MSTORE PUSH1 0x4 ADD PUSH2 0x228 SWAP1 PUSH2 0xCB1 JUMP JUMPDEST PUSH1 0x40 MLOAD DUP1 SWAP2 SUB SWAP1 REVERT JUMPDEST PUSH1 0x1 DUP1 DUP2 SWAP1 SSTORE POP PUSH1 0x0 DUP1 DUP5 DUP5 DUP2 ADD SWAP1 PUSH2 0x24A SWAP2 SWAP1 PUSH2 0xF7D JUMP JUMPDEST SWAP2 POP SWAP2 POP DUP1 TIMESTAMP GT ISZERO PUSH2 0x288 JUMPI PUSH1 0x40 MLOAD PUSH32 0x1AB7DA6B00000000000000000000000000000000000000000000000000000000 DUP2 MSTORE PUSH1 0x4 ADD PUSH1 0x40 MLOAD DUP1 SWAP2 SUB SWAP1 REVERT JUMPDEST PUSH1 0x0 JUMPDEST DUP3 MLOAD DUP2 LT ISZERO PUSH2 0x3BF JUMPI PUSH1 0x0 DUP1 DUP5 DUP4 DUP2 MLOAD DUP2 LT PUSH2 0x2AA JUMPI PUSH2 0x2A9 PUSH2 0xFD9 JUMP JUMPDEST JUMPDEST PUSH1 0x20 MUL PUSH1 0x20 ADD ADD MLOAD PUSH1 0x0 ADD MLOAD PUSH20 0xFFFFFFFFFFFFFFFFFFFFFFFFFFFFFFFFFFFFFFFF AND DUP6 DUP5 DUP2 MLOAD DUP2 LT PUSH2 0x2DF JUMPI PUSH2 0x2DE PUSH2 0xFD9 JUMP JUMPDEST JUMPDEST PUSH1 0x20 MUL PUSH1 0x20 ADD ADD MLOAD PUSH1 0x40 ADD MLOAD DUP7 DUP6 DUP2 MLOAD DUP2 LT PUSH2 0x2FE JUMPI PUSH2 0x2FD PUSH2 0xFD9 JUMP JUMPDEST JUMPDEST PUSH1 0x20 MUL PUSH1 0x20 ADD ADD MLOAD PUSH1 0x20 ADD MLOAD PUSH1 0x40 MLOAD PUSH2 0x317 SWAP2 SWAP1 PUSH2 0x1079 JUMP JUMPDEST PUSH1 0x0 PUSH1 0x40 MLOAD DUP1 DUP4 SUB DUP2 DUP6 DUP8 GAS CALL SWAP3 POP POP POP RETURNDATASIZE DUP1 PUSH1 0x0 DUP2 EQ PUSH2 0x354 JUMPI PUSH1 0x40 MLOAD SWAP2 POP PUSH1 0x1F NOT PUSH1 0x3F RETURNDATASIZE ADD AND DUP3 ADD PUSH1 0x40 MSTORE RETURNDATASIZE DUP3 MSTORE RETURNDATASIZE PUSH1 0x0 PUSH1 0x20 DUP5 ADD RETURNDATACOPY PUSH2 0x359 JUMP JUMPDEST PUSH1 0x60 SWAP2 POP JUMPDEST POP SWAP2 POP SWAP2 POP DUP2 PUSH2 0x3B0 JUMPI PUSH1 0x0 DUP2 MLOAD GT ISZERO PUSH2 0x375 JUMPI DUP1 MLOAD PUSH1 0x20 DUP3 ADD REVERT JUMPDEST PUSH1 0x40 MLOAD PUSH32 0x8C379A000000000000000000000000000000000000000000000000000000000 DUP2 MSTORE PUSH1 0x4 ADD PUSH2 0x3A7 SWAP1 PUSH2 0x10DC JUMP JUMPDEST PUSH1 0x40 MLOAD DUP1 SWAP2 SUB SWAP1 REVERT JUMPDEST POP POP DUP1 DUP1 PUSH1 0x1 ADD SWAP2 POP POP PUSH2 0x28B JUMP JUMPDEST POP PUSH1 0x0 DUP10 PUSH20 0xFFFFFFFFFFFFFFFFFFFFFFFFFFFFFFFFFFFFFFFF AND PUSH4 0x70A08231 ADDRESS PUSH1 0x40 MLOAD DUP3 PUSH4 0xFFFFFFFF AND PUSH1 0xE0 SHL DUP2 MSTORE PUSH1 0x4 ADD PUSH2 0x3FB SWAP2 SWAP1 PUSH2 0xB5B JUMP JUMPDEST PUSH1 0x20 PUSH1 0x40 MLOAD DUP1 DUP4 SUB DUP2 DUP7 GAS STATICCALL ISZERO DUP1 ISZERO PUSH2 0x418 JUMPI RETURNDATASIZE PUSH1 0x0 DUP1 RETURNDATACOPY RETURNDATASIZE PUSH1 0x0 REVERT JUMPDEST POP POP POP POP PUSH1 0x40 MLOAD RETURNDATASIZE PUSH1 0x1F NOT PUSH1 0x1F DUP3 ADD AND DUP3 ADD DUP1 PUSH1 0x40 MSTORE POP DUP2 ADD SWAP1 PUSH2 0x43C SWAP2 SWAP1 PUSH2 0x1111 JUMP JUMPDEST SWAP1 POP PUSH1 0x0 DUP9 DUP11 PUSH2 0x44C SWAP2 SWAP1 PUSH2 0x116D JUMP JUMPDEST SWAP1 POP DUP1 DUP3 GT PUSH2 0x487 JUMPI PUSH1 0x40 MLOAD PUSH32 0xB4CB19900000000000000000000000000000000000000000000000000000000 DUP2 MSTORE PUSH1 0x4 ADD PUSH1 0x40 MLOAD DUP1 SWAP2 SUB SWAP1 REVERT JUMPDEST DUP11 PUSH20 0xFFFFFFFFFFFFFFFFFFFFFFFFFFFFFFFFFFFFFFFF AND PUSH4 0x95EA7B3 PUSH32 0x0 DUP4 PUSH1 0x40 MLOAD DUP4 PUSH4 0xFFFFFFFF AND PUSH1 0xE0 SHL DUP2 MSTORE PUSH1 0x4 ADD PUSH2 0x4E2 SWAP3 SWAP2 SWAP1 PUSH2 0x11B0 JUMP JUMPDEST PUSH1 0x20 PUSH1 0x40 MLOAD DUP1 DUP4 SUB DUP2 PUSH1 0x0 DUP8 GAS CALL ISZERO DUP1 ISZERO PUSH2 0x501 JUMPI RETURNDATASIZE PUSH1 0x0 DUP1 RETURNDATACOPY RETURNDATASIZE PUSH1 0x0 REVERT JUMPDEST POP POP POP POP PUSH1 0x40 MLOAD RETURNDATASIZE PUSH1 0x1F NOT PUSH1 0x1F DUP3 ADD AND DUP3 ADD DUP1 PUSH1 0x40 MSTORE POP DUP2 ADD SWAP1 PUSH2 0x525 SWAP2 SWAP1 PUSH2 0x1205 JUMP JUMPDEST PUSH2 0x564 JUMPI PUSH1 0x40 MLOAD PUSH32 0x8C379A000000000000000000000000000000000000000000000000000000000 DUP2 MSTORE PUSH1 0x4 ADD PUSH2 0x55B SWAP1 PUSH2 0x127E JUMP JUMPDEST PUSH1 0x40 MLOAD DUP1 SWAP2 SUB SWAP1 REVERT JUMPDEST PUSH1 0x0 DUP2 DUP4 PUSH2 0x572 SWAP2 SWAP1 PUSH2 0x129E JUMP JUMPDEST SWAP1 POP DUP12 PUSH20 0xFFFFFFFFFFFFFFFFFFFFFFFFFFFFFFFFFFFFFFFF AND PUSH4 0xA9059CBB PUSH2 0x598 PUSH2 0x6C9 JUMP JUMPDEST DUP4 PUSH1 0x40 MLOAD DUP4 PUSH4 0xFFFFFFFF AND PUSH1 0xE0 SHL DUP2 MSTORE PUSH1 0x4 ADD PUSH2 0x5B6 SWAP3 SWAP2 SWAP1 PUSH2 0x11B0 JUMP JUMPDEST PUSH1 0x20 PUSH1 0x40 MLOAD DUP1 DUP4 SUB DUP2 PUSH1 0x0 DUP8 GAS CALL ISZERO DUP1 ISZERO PUSH2 0x5D5 JUMPI RETURNDATASIZE PUSH1 0x0 DUP1 RETURNDATACOPY RETURNDATASIZE PUSH1 0x0 REVERT JUMPDEST POP POP POP POP PUSH1 0x40 MLOAD RETURNDATASIZE PUSH1 0x1F NOT PUSH1 0x1F DUP3 ADD AND DUP3 ADD DUP1 PUSH1 0x40 MSTORE POP DUP2 ADD SWAP1 PUSH2 0x5F9 SWAP2 SWAP1 PUSH2 0x1205 JUMP JUMPDEST PUSH2 0x638 JUMPI PUSH1 0x40 MLOAD PUSH32 0x8C379A000000000000000000000000000000000000000000000000000000000 DUP2 MSTORE PUSH1 0x4 ADD PUSH2 0x62F SWAP1 PUSH2 0x131E JUMP JUMPDEST PUSH1 0x40 MLOAD DUP1 SWAP2 SUB SWAP1 REVERT JUMPDEST DUP12 PUSH20 0xFFFFFFFFFFFFFFFFFFFFFFFFFFFFFFFFFFFFFFFF AND PUSH32 0xFD5FD7AC9F04BCE793F6342899F2B330259643496C658EB97D0DA1B511AD3C90 DUP13 DUP13 DUP5 PUSH1 0x40 MLOAD PUSH2 0x682 SWAP4 SWAP3 SWAP2 SWAP1 PUSH2 0x133E JUMP JUMPDEST PUSH1 0x40 MLOAD DUP1 SWAP2 SUB SWAP1 LOG2 PUSH1 0x1 SWAP6 POP POP POP POP POP POP PUSH1 0x0 PUSH1 0x1 DUP2 SWAP1 SSTORE POP SWAP7 SWAP6 POP POP POP POP POP POP JUMP JUMPDEST PUSH32 0x0 DUP2 JUMP JUMPDEST PUSH1 0x0 DUP1 PUSH1 0x0 SWAP1 SLOAD SWAP1 PUSH2 0x100 EXP SWAP1 DIV PUSH20 0xFFFFFFFFFFFFFFFFFFFFFFFFFFFFFFFFFFFFFFFF AND SWAP1 POP SWAP1 JUMP JUMPDEST CALLER PUSH20 0xFFFFFFFFFFFFFFFFFFFFFFFFFFFFFFFFFFFFFFFF AND PUSH2 0x711 PUSH2 0x6C9 JUMP JUMPDEST PUSH20 0xFFFFFFFFFFFFFFFFFFFFFFFFFFFFFFFFFFFFFFFF AND EQ PUSH2 0x767 JUMPI PUSH1 0x40 MLOAD PUSH32 0x8C379A000000000000000000000000000000000000000000000000000000000 DUP2 MSTORE PUSH1 0x4 ADD PUSH2 0x75E SWAP1 PUSH2 0x13C1 JUMP JUMPDEST PUSH1 0x40 MLOAD DUP1 SWAP2 SUB SWAP1 REVERT JUMPDEST PUSH1 0x0 PUSH1 0x1 SLOAD EQ PUSH2 0x7AC JUMPI PUSH1 0x40 MLOAD PUSH32 0x8C379A000000000000000000000000000000000000000000000000000000000 DUP2 MSTORE PUSH1 0x4 ADD PUSH2 0x7A3 SWAP1 PUSH2 0xCB1 JUMP JUMPDEST PUSH1 0x40 MLOAD DUP1 SWAP2 SUB SWAP1 REVERT JUMPDEST PUSH1 0x1 DUP1 DUP2 SWAP1 SSTORE POP DUP1 TIMESTAMP GT ISZERO PUSH2 0x7ED JUMPI PUSH1 0x40 MLOAD PUSH32 0x1AB7DA6B00000000000000000000000000000000000000000000000000000000 DUP2 MSTORE PUSH1 0x4 ADD PUSH1 0x40 MLOAD DUP1 SWAP2 SUB SWAP1 REVERT JUMPDEST PUSH1 0x0 DUP4 DUP4 DUP4 PUSH1 0x40 MLOAD PUSH1 0x20 ADD PUSH2 0x804 SWAP4 SWAP3 SWAP2 SWAP1 PUSH2 0x161F JUMP JUMPDEST PUSH1 0x40 MLOAD PUSH1 0x20 DUP2 DUP4 SUB SUB DUP2 MSTORE SWAP1 PUSH1 0x40 MSTORE SWAP1 POP PUSH32 0x0 PUSH20 0xFFFFFFFFFFFFFFFFFFFFFFFFFFFFFFFFFFFFFFFF AND PUSH4 0x42B0B77C ADDRESS DUP9 DUP9 DUP6 PUSH1 0x0 PUSH1 0x40 MLOAD DUP7 PUSH4 0xFFFFFFFF AND PUSH1 0xE0 SHL DUP2 MSTORE PUSH1 0x4 ADD PUSH2 0x877 SWAP6 SWAP5 SWAP4 SWAP3 SWAP2 SWAP1 PUSH2 0x16E4 JUMP JUMPDEST PUSH1 0x0 PUSH1 0x40 MLOAD DUP1 DUP4 SUB DUP2 PUSH1 0x0 DUP8 DUP1 EXTCODESIZE ISZERO DUP1 ISZERO PUSH2 0x891 JUMPI PUSH1 0x0 DUP1 REVERT JUMPDEST POP GAS CALL ISZERO DUP1 ISZERO PUSH2 0x8A5 JUMPI RETURNDATASIZE PUSH1 0x0 DUP1 RETURNDATACOPY RETURNDATASIZE PUSH1 0x0 REVERT JUMPDEST POP POP POP POP POP PUSH1 0x0 PUSH1 0x1 DUP2 SWAP1 SSTORE POP POP POP POP POP POP JUMP JUMPDEST PUSH1 0x0 PUSH20 0xFFFFFFFFFFFFFFFFFFFFFFFFFFFFFFFFFFFFFFFF DUP3 AND SWAP1 POP SWAP2 SWAP1 POP JUMP JUMPDEST PUSH1 0x0 DUP2 SWAP1 POP SWAP2 SWAP1 POP JUMP JUMPDEST PUSH1 0x0 PUSH2 0x8FE PUSH2 0x8F9 PUSH2 0x8F4 DUP5 PUSH2 0x8B9 JUMP JUMPDEST PUSH2 0x8D9 JUMP JUMPDEST PUSH2 0x8B9 JUMP JUMPDEST SWAP1 POP SWAP2 SWAP1 POP JUMP JUMPDEST PUSH1 0x0 PUSH2 0x910 DUP3 PUSH2 0x8E3 JUMP JUMPDEST SWAP1 POP SWAP2 SWAP1 POP JUMP JUMPDEST PUSH1 0x0 PUSH2 0x922 DUP3 PUSH2 0x905 JUMP JUMPDEST SWAP1 POP SWAP2 SWAP1 POP JUMP JUMPDEST PUSH2 0x932 DUP2 PUSH2 0x917 JUMP JUMPDEST DUP3 MSTORE POP POP JUMP JUMPDEST PUSH1 0x0 PUSH1 0x20 DUP3 ADD SWAP1 POP PUSH2 0x94D PUSH1 0x0 DUP4 ADD DUP5 PUSH2 0x929 JUMP JUMPDEST SWAP3 SWAP2 POP POP JUMP JUMPDEST PUSH1 0x0 PUSH1 0x40 MLOAD SWAP1 POP SWAP1 JUMP JUMPDEST PUSH1 0x0 DUP1 REVERT JUMPDEST PUSH1 0x0 DUP1 REVERT JUMPDEST PUSH1 0x0 PUSH2 0x972 DUP3 PUSH2 0x8B9 JUMP JUMPDEST SWAP1 POP SWAP2 SWAP1 POP JUMP JUMPDEST PUSH2 0x982 DUP2 PUSH2 0x967 JUMP JUMPDEST DUP2 EQ PUSH2 0x98D JUMPI PUSH1 0x0 DUP1 REVERT JUMPDEST POP JUMP JUMPDEST PUSH1 0x0 DUP2 CALLDATALOAD SWAP1 POP PUSH2 0x99F DUP2 PUSH2 0x979 JUMP JUMPDEST SWAP3 SWAP2 POP POP JUMP JUMPDEST PUSH1 0x0 DUP2 SWAP1 POP SWAP2 SWAP1 POP JUMP JUMPDEST PUSH2 0x9B8 DUP2 PUSH2 0x9A5 JUMP JUMPDEST DUP2 EQ PUSH2 0x9C3 JUMPI PUSH1 0x0 DUP1 REVERT JUMPDEST POP JUMP JUMPDEST PUSH1 0x0 DUP2 CALLDATALOAD SWAP1 POP PUSH2 0x9D5 DUP2 PUSH2 0x9AF JUMP JUMPDEST SWAP3 SWAP2 POP POP JUMP JUMPDEST PUSH1 0x0 DUP1 REVERT JUMPDEST PUSH1 0x0 DUP1 REVERT JUMPDEST PUSH1 0x0 DUP1 REVERT JUMPDEST PUSH1 0x0 DUP1 DUP4 PUSH1 0x1F DUP5 ADD SLT PUSH2 0xA00 JUMPI PUSH2 0x9FF PUSH2 0x9DB JUMP JUMPDEST JUMPDEST DUP3 CALLDATALOAD SWAP1 POP PUSH8 0xFFFFFFFFFFFFFFFF DUP2 GT ISZERO PUSH2 0xA1D JUMPI PUSH2 0xA1C PUSH2 0x9E0 JUMP JUMPDEST JUMPDEST PUSH1 0x20 DUP4 ADD SWAP2 POP DUP4 PUSH1 0x1 DUP3 MUL DUP4 ADD GT ISZERO PUSH2 0xA39 JUMPI PUSH2 0xA38 PUSH2 0x9E5 JUMP JUMPDEST JUMPDEST SWAP3 POP SWAP3 SWAP1 POP JUMP JUMPDEST PUSH1 0x0 DUP1 PUSH1 0x0 DUP1 PUSH1 0x0 DUP1 PUSH1 0xA0 DUP8 DUP10 SUB SLT ISZERO PUSH2 0xA5D JUMPI PUSH2 0xA5C PUSH2 0x95D JUMP JUMPDEST JUMPDEST PUSH1 0x0 PUSH2 0xA6B DUP10 DUP3 DUP11 ADD PUSH2 0x990 JUMP JUMPDEST SWAP7 POP POP PUSH1 0x20 PUSH2 0xA7C DUP10 DUP3 DUP11 ADD PUSH2 0x9C6 JUMP JUMPDEST SWAP6 POP POP PUSH1 0x40 PUSH2 0xA8D DUP10 DUP3 DUP11 ADD PUSH2 0x9C6 JUMP JUMPDEST SWAP5 POP POP PUSH1 0x60 PUSH2 0xA9E DUP10 DUP3 DUP11 ADD PUSH2 0x990 JUMP JUMPDEST SWAP4 POP POP PUSH1 0x80 DUP8 ADD CALLDATALOAD PUSH8 0xFFFFFFFFFFFFFFFF DUP2 GT ISZERO PUSH2 0xABF JUMPI PUSH2 0xABE PUSH2 0x962 JUMP JUMPDEST JUMPDEST PUSH2 0xACB DUP10 DUP3 DUP11 ADD PUSH2 0x9EA JUMP JUMPDEST SWAP3 POP SWAP3 POP POP SWAP3 SWAP6 POP SWAP3 SWAP6 POP SWAP3 SWAP6 JUMP JUMPDEST PUSH1 0x0 DUP2 ISZERO ISZERO SWAP1 POP SWAP2 SWAP1 POP JUMP JUMPDEST PUSH2 0xAEF DUP2 PUSH2 0xADA JUMP JUMPDEST DUP3 MSTORE POP POP JUMP JUMPDEST PUSH1 0x0 PUSH1 0x20 DUP3 ADD SWAP1 POP PUSH2 0xB0A PUSH1 0x0 DUP4 ADD DUP5 PUSH2 0xAE6 JUMP JUMPDEST SWAP3 SWAP2 POP POP JUMP JUMPDEST PUSH1 0x0 PUSH2 0xB1B DUP3 PUSH2 0x905 JUMP JUMPDEST SWAP1 POP SWAP2 SWAP1 POP JUMP JUMPDEST PUSH2 0xB2B DUP2 PUSH2 0xB10 JUMP JUMPDEST DUP3 MSTORE POP POP JUMP JUMPDEST PUSH1 0x0 PUSH1 0x20 DUP3 ADD SWAP1 POP PUSH2 0xB46 PUSH1 0x0 DUP4 ADD DUP5 PUSH2 0xB22 JUMP JUMPDEST SWAP3 SWAP2 POP POP JUMP JUMPDEST PUSH2 0xB55 DUP2 PUSH2 0x967 JUMP JUMPDEST DUP3 MSTORE POP POP JUMP JUMPDEST PUSH1 0x0 PUSH1 0x20 DUP3 ADD SWAP1 POP PUSH2 0xB70 PUSH1 0x0 DUP4 ADD DUP5 PUSH2 0xB4C JUMP JUMPDEST SWAP3 SWAP2 POP POP JUMP JUMPDEST PUSH1 0x0 DUP1 DUP4 PUSH1 0x1F DUP5 ADD SLT PUSH2 0xB8C JUMPI PUSH2 0xB8B PUSH2 0x9DB JUMP JUMPDEST JUMPDEST DUP3 CALLDATALOAD SWAP1 POP PUSH8 0xFFFFFFFFFFFFFFFF DUP2 GT ISZERO PUSH2 0xBA9 JUMPI PUSH2 0xBA8 PUSH2 0x9E0 JUMP JUMPDEST JUMPDEST PUSH1 0x20 DUP4 ADD SWAP2 POP DUP4 PUSH1 0x20 DUP3 MUL DUP4 ADD GT ISZERO PUSH2 0xBC5 JUMPI PUSH2 0xBC4 PUSH2 0x9E5 JUMP JUMPDEST JUMPDEST SWAP3 POP SWAP3 SWAP1 POP JUMP JUMPDEST PUSH1 0x0 DUP1 PUSH1 0x0 DUP1 PUSH1 0x0 PUSH1 0x80 DUP7 DUP9 SUB SLT ISZERO PUSH2 0xBE8 JUMPI PUSH2 0xBE7 PUSH2 0x95D JUMP JUMPDEST JUMPDEST PUSH1 0x0 PUSH2 0xBF6 DUP9 DUP3 DUP10 ADD PUSH2 0x990 JUMP JUMPDEST SWAP6 POP POP PUSH1 0x20 PUSH2 0xC07 DUP9 DUP3 DUP10 ADD PUSH2 0x9C6 JUMP JUMPDEST SWAP5 POP POP PUSH1 0x40 DUP7 ADD CALLDATALOAD PUSH8 0xFFFFFFFFFFFFFFFF DUP2 GT ISZERO PUSH2 0xC28 JUMPI PUSH2 0xC27 PUSH2 0x962 JUMP JUMPDEST JUMPDEST PUSH2 0xC34 DUP9 DUP3 DUP10 ADD PUSH2 0xB76 JUMP JUMPDEST SWAP4 POP SWAP4 POP POP PUSH1 0x60 PUSH2 0xC47 DUP9 DUP3 DUP10 ADD PUSH2 0x9C6 JUMP JUMPDEST SWAP2 POP POP SWAP3 SWAP6 POP SWAP3 SWAP6 SWAP1 SWAP4 POP JUMP JUMPDEST PUSH1 0x0 DUP3 DUP3 MSTORE PUSH1 0x20 DUP3 ADD SWAP1 POP SWAP3 SWAP2 POP POP JUMP JUMPDEST PUSH32 0x5245454E54455200000000000000000000000000000000000000000000000000 PUSH1 0x0 DUP3 ADD MSTORE POP JUMP JUMPDEST PUSH1 0x0 PUSH2 0xC9B PUSH1 0x7 DUP4 PUSH2 0xC54 JUMP JUMPDEST SWAP2 POP PUSH2 0xCA6 DUP3 PUSH2 0xC65 JUMP JUMPDEST PUSH1 0x20 DUP3 ADD SWAP1 POP SWAP2 SWAP1 POP JUMP JUMPDEST PUSH1 0x0 PUSH1 0x20 DUP3 ADD SWAP1 POP DUP2 DUP2 SUB PUSH1 0x0 DUP4 ADD MSTORE PUSH2 0xCCA DUP2 PUSH2 0xC8E JUMP JUMPDEST SWAP1 POP SWAP2 SWAP1 POP JUMP JUMPDEST PUSH1 0x0 PUSH1 0x1F NOT PUSH1 0x1F DUP4 ADD AND SWAP1 POP SWAP2 SWAP1 POP JUMP JUMPDEST PUSH32 0x4E487B7100000000000000000000000000000000000000000000000000000000 PUSH1 0x0 MSTORE PUSH1 0x41 PUSH1 0x4 MSTORE PUSH1 0x24 PUSH1 0x0 REVERT JUMPDEST PUSH2 0xD1A DUP3 PUSH2 0xCD1 JUMP JUMPDEST DUP2 ADD DUP2 DUP2 LT PUSH8 0xFFFFFFFFFFFFFFFF DUP3 GT OR ISZERO PUSH2 0xD39 JUMPI PUSH2 0xD38 PUSH2 0xCE2 JUMP JUMPDEST JUMPDEST DUP1 PUSH1 0x40 MSTORE POP POP POP JUMP JUMPDEST PUSH1 0x0 PUSH2 0xD4C PUSH2 0x953 JUMP JUMPDEST SWAP1 POP PUSH2 0xD58 DUP3 DUP3 PUSH2 0xD11 JUMP JUMPDEST SWAP2 SWAP1 POP JUMP JUMPDEST PUSH1 0x0 PUSH8 0xFFFFFFFFFFFFFFFF DUP3 GT ISZERO PUSH2 0xD78 JUMPI PUSH2 0xD77 PUSH2 0xCE2 JUMP JUMPDEST JUMPDEST PUSH1 0x20 DUP3 MUL SWAP1 POP PUSH1 0x20 DUP2 ADD SWAP1 POP SWAP2 SWAP1 POP JUMP JUMPDEST PUSH1 0x0 DUP1 REVERT JUMPDEST PUSH1 0x0 DUP1 REVERT JUMPDEST PUSH1 0x0 DUP1 REVERT JUMPDEST PUSH1 0x0 PUSH8 0xFFFFFFFFFFFFFFFF DUP3 GT ISZERO PUSH2 0xDB3 JUMPI PUSH2 0xDB2 PUSH2 0xCE2 JUMP JUMPDEST JUMPDEST PUSH2 0xDBC DUP3 PUSH2 0xCD1 JUMP JUMPDEST SWAP1 POP PUSH1 0x20 DUP2 ADD SWAP1 POP SWAP2 SWAP1 POP JUMP JUMPDEST DUP3 DUP2 DUP4 CALLDATACOPY PUSH1 0x0 DUP4 DUP4 ADD MSTORE POP POP POP JUMP JUMPDEST PUSH1 0x0 PUSH2 0xDEB PUSH2 0xDE6 DUP5 PUSH2 0xD98 JUMP JUMPDEST PUSH2 0xD42 JUMP JUMPDEST SWAP1 POP DUP3 DUP2 MSTORE PUSH1 0x20 DUP2 ADD DUP5 DUP5 DUP5 ADD GT ISZERO PUSH2 0xE07 JUMPI PUSH2 0xE06 PUSH2 0xD93 JUMP JUMPDEST JUMPDEST PUSH2 0xE12 DUP5 DUP3 DUP6 PUSH2 0xDC9 JUMP JUMPDEST POP SWAP4 SWAP3 POP POP POP JUMP JUMPDEST PUSH1 0x0 DUP3 PUSH1 0x1F DUP4 ADD SLT PUSH2 0xE2F JUMPI PUSH2 0xE2E PUSH2 0x9DB JUMP JUMPDEST JUMPDEST DUP2 CALLDATALOAD PUSH2 0xE3F DUP5 DUP3 PUSH1 0x20 DUP7 ADD PUSH2 0xDD8 JUMP JUMPDEST SWAP2 POP POP SWAP3 SWAP2 POP POP JUMP JUMPDEST PUSH1 0x0 PUSH1 0x60 DUP3 DUP5 SUB SLT ISZERO PUSH2 0xE5E JUMPI PUSH2 0xE5D PUSH2 0xD89 JUMP JUMPDEST JUMPDEST PUSH2 0xE68 PUSH1 0x60 PUSH2 0xD42 JUMP JUMPDEST SWAP1 POP PUSH1 0x0 PUSH2 0xE78 DUP5 DUP3 DUP6 ADD PUSH2 0x990 JUMP JUMPDEST PUSH1 0x0 DUP4 ADD MSTORE POP PUSH1 0x20 DUP3 ADD CALLDATALOAD PUSH8 0xFFFFFFFFFFFFFFFF DUP2 GT ISZERO PUSH2 0xE9C JUMPI PUSH2 0xE9B PUSH2 0xD8E JUMP JUMPDEST JUMPDEST PUSH2 0xEA8 DUP5 DUP3 DUP6 ADD PUSH2 0xE1A JUMP JUMPDEST PUSH1 0x20 DUP4 ADD MSTORE POP PUSH1 0x40 PUSH2 0xEBC DUP5 DUP3 DUP6 ADD PUSH2 0x9C6 JUMP JUMPDEST PUSH1 0x40 DUP4 ADD MSTORE POP SWAP3 SWAP2 POP POP JUMP JUMPDEST PUSH1 0x0 PUSH2 0xEDB PUSH2 0xED6 DUP5 PUSH2 0xD5D JUMP JUMPDEST PUSH2 0xD42 JUMP JUMPDEST SWAP1 POP DUP1 DUP4 DUP3 MSTORE PUSH1 0x20 DUP3 ADD SWAP1 POP PUSH1 0x20 DUP5 MUL DUP4 ADD DUP6 DUP2 GT ISZERO PUSH2 0xEFE JUMPI PUSH2 0xEFD PUSH2 0x9E5 JUMP JUMPDEST JUMPDEST DUP4 JUMPDEST DUP2 DUP2 LT ISZERO PUSH2 0xF45 JUMPI DUP1 CALLDATALOAD PUSH8 0xFFFFFFFFFFFFFFFF DUP2 GT ISZERO PUSH2 0xF23 JUMPI PUSH2 0xF22 PUSH2 0x9DB JUMP JUMPDEST JUMPDEST DUP1 DUP7 ADD PUSH2 0xF30 DUP10 DUP3 PUSH2 0xE48 JUMP JUMPDEST DUP6 MSTORE PUSH1 0x20 DUP6 ADD SWAP5 POP POP POP PUSH1 0x20 DUP2 ADD SWAP1 POP PUSH2 0xF00 JUMP JUMPDEST POP POP POP SWAP4 SWAP3 POP POP POP JUMP JUMPDEST PUSH1 0x0 DUP3 PUSH1 0x1F DUP4 ADD SLT PUSH2 0xF64 JUMPI PUSH2 0xF63 PUSH2 0x9DB JUMP JUMPDEST JUMPDEST DUP2 CALLDATALOAD PUSH2 0xF74 DUP5 DUP3 PUSH1 0x20 DUP7 ADD PUSH2 0xEC8 JUMP JUMPDEST SWAP2 POP POP SWAP3 SWAP2 POP POP JUMP JUMPDEST PUSH1 0x0 DUP1 PUSH1 0x40 DUP4 DUP6 SUB SLT ISZERO PUSH2 0xF94 JUMPI PUSH2 0xF93 PUSH2 0x95D JUMP JUMPDEST JUMPDEST PUSH1 0x0 DUP4 ADD CALLDATALOAD PUSH8 0xFFFFFFFFFFFFFFFF DUP2 GT ISZERO PUSH2 0xFB2 JUMPI PUSH2 0xFB1 PUSH2 0x962 JUMP JUMPDEST JUMPDEST PUSH2 0xFBE DUP6 DUP3 DUP7 ADD PUSH2 0xF4F JUMP JUMPDEST SWAP3 POP POP PUSH1 0x20 PUSH2 0xFCF DUP6 DUP3 DUP7 ADD PUSH2 0x9C6 JUMP JUMPDEST SWAP2 POP POP SWAP3 POP SWAP3 SWAP1 POP JUMP JUMPDEST PUSH32 0x4E487B7100000000000000000000000000000000000000000000000000000000 PUSH1 0x0 MSTORE PUSH1 0x32 PUSH1 0x4 MSTORE PUSH1 0x24 PUSH1 0x0 REVERT JUMPDEST PUSH1 0x0 DUP2 MLOAD SWAP1 POP SWAP2 SWAP1 POP JUMP JUMPDEST PUSH1 0x0 DUP2 SWAP1 POP SWAP3 SWAP2 POP POP JUMP JUMPDEST PUSH1 0x0 JUMPDEST DUP4 DUP2 LT ISZERO PUSH2 0x103C JUMPI DUP1 DUP3 ADD MLOAD DUP2 DUP5 ADD MSTORE PUSH1 0x20 DUP2 ADD SWAP1 POP PUSH2 0x1021 JUMP JUMPDEST PUSH1 0x0 DUP5 DUP5 ADD MSTORE POP POP POP POP JUMP JUMPDEST PUSH1 0x0 PUSH2 0x1053 DUP3 PUSH2 0x1008 JUMP JUMPDEST PUSH2 0x105D DUP2 DUP6 PUSH2 0x1013 JUMP JUMPDEST SWAP4 POP PUSH2 0x106D DUP2 DUP6 PUSH1 0x20 DUP7 ADD PUSH2 0x101E JUMP JUMPDEST DUP1 DUP5 ADD SWAP2 POP POP SWAP3 SWAP2 POP POP JUMP JUMPDEST PUSH1 0x0 PUSH2 0x1085 DUP3 DUP5 PUSH2 0x1048 JUMP JUMPDEST SWAP2 POP DUP2 SWAP1 POP SWAP3 SWAP2 POP POP JUMP JUMPDEST PUSH32 0x4445582063616C6C206661696C65640000000000000000000000000000000000 PUSH1 0x0 DUP3 ADD MSTORE POP JUMP JUMPDEST PUSH1 0x0 PUSH2 0x10C6 PUSH1 0xF DUP4 PUSH2 0xC54 JUMP JUMPDEST SWAP2 POP PUSH2 0x10D1 DUP3 PUSH2 0x1090 JUMP JUMPDEST PUSH1 0x20 DUP3 ADD SWAP1 POP SWAP2 SWAP1 POP JUMP JUMPDEST PUSH1 0x0 PUSH1 0x20 DUP3 ADD SWAP1 POP DUP2 DUP2 SUB PUSH1 0x0 DUP4 ADD MSTORE PUSH2 0x10F5 DUP2 PUSH2 0x10B9 JUMP JUMPDEST SWAP1 POP SWAP2 SWAP1 POP JUMP JUMPDEST PUSH1 0x0 DUP2 MLOAD SWAP1 POP PUSH2 0x110B DUP2 PUSH2 0x9AF JUMP JUMPDEST SWAP3 SWAP2 POP POP JUMP JUMPDEST PUSH1 0x0 PUSH1 0x20 DUP3 DUP5 SUB SLT ISZERO PUSH2 0x1127 JUMPI PUSH2 0x1126 PUSH2 0x95D JUMP JUMPDEST JUMPDEST PUSH1 0x0 PUSH2 0x1135 DUP5 DUP3 DUP6 ADD PUSH2 0x10FC JUMP JUMPDEST SWAP2 POP POP SWAP3 SWAP2 POP POP JUMP JUMPDEST PUSH32 0x4E487B7100000000000000000000000000000000000000000000000000000000 PUSH1 0x0 MSTORE PUSH1 0x11 PUSH1 0x4 MSTORE PUSH1 0x24 PUSH1 0x0 REVERT JUMPDEST PUSH1 0x0 PUSH2 0x1178 DUP3 PUSH2 0x9A5 JUMP JUMPDEST SWAP2 POP PUSH2 0x1183 DUP4 PUSH2 0x9A5 JUMP JUMPDEST SWAP3 POP DUP3 DUP3 ADD SWAP1 POP DUP1 DUP3 GT ISZERO PUSH2 0x119B JUMPI PUSH2 0x119A PUSH2 0x113E JUMP JUMPDEST JUMPDEST SWAP3 SWAP2 POP POP JUMP JUMPDEST PUSH2 0x11AA DUP2 PUSH2 0x9A5 JUMP JUMPDEST DUP3 MSTORE POP POP JUMP JUMPDEST PUSH1 0x0 PUSH1 0x40 DUP3 ADD SWAP1 POP PUSH2 0x11C5 PUSH1 0x0 DUP4 ADD DUP6 PUSH2 0xB4C JUMP JUMPDEST PUSH2 0x11D2 PUSH1 0x20 DUP4 ADD DUP5 PUSH2 0x11A1 JUMP JUMPDEST SWAP4 SWAP3 POP POP POP JUMP JUMPDEST PUSH2 0x11E2 DUP2 PUSH2 0xADA JUMP JUMPDEST DUP2 EQ PUSH2 0x11ED JUMPI PUSH1 0x0 DUP1 REVERT JUMPDEST POP JUMP JUMPDEST PUSH1 0x0 DUP2 MLOAD SWAP1 POP PUSH2 0x11FF DUP2 PUSH2 0x11D9 JUMP JUMPDEST SWAP3 SWAP2 POP POP JUMP JUMPDEST PUSH1 0x0 PUSH1 0x20 DUP3 DUP5 SUB SLT ISZERO PUSH2 0x121B JUMPI PUSH2 0x121A PUSH2 0x95D JUMP JUMPDEST JUMPDEST PUSH1 0x0 PUSH2 0x1229 DUP5 DUP3 DUP6 ADD PUSH2 0x11F0 JUMP JUMPDEST SWAP2 POP POP SWAP3 SWAP2 POP POP JUMP JUMPDEST PUSH32 0x417070726F7665206661696C6564000000000000000000000000000000000000 PUSH1 0x0 DUP3 ADD MSTORE POP JUMP JUMPDEST PUSH1 0x0 PUSH2 0x1268 PUSH1 0xE DUP4 PUSH2 0xC54 JUMP JUMPDEST SWAP2 POP PUSH2 0x1273 DUP3 PUSH2 0x1232 JUMP JUMPDEST PUSH1 0x20 DUP3 ADD SWAP1 POP SWAP2 SWAP1 POP JUMP JUMPDEST PUSH1 0x0 PUSH1 0x20 DUP3 ADD SWAP1 POP DUP2 DUP2 SUB PUSH1 0x0 DUP4 ADD MSTORE PUSH2 0x1297 DUP2 PUSH2 0x125B JUMP JUMPDEST SWAP1 POP SWAP2 SWAP1 POP JUMP JUMPDEST PUSH1 0x0 PUSH2 0x12A9 DUP3 PUSH2 0x9A5 JUMP JUMPDEST SWAP2 POP PUSH2 0x12B4 DUP4 PUSH2 0x9A5 JUMP JUMPDEST SWAP3 POP DUP3 DUP3 SUB SWAP1 POP DUP2 DUP2 GT ISZERO PUSH2 0x12CC JUMPI PUSH2 0x12CB PUSH2 0x113E JUMP JUMPDEST JUMPDEST SWAP3 SWAP2 POP POP JUMP JUMPDEST PUSH32 0x50726F666974207472616E73666572206661696C656400000000000000000000 PUSH1 0x0 DUP3 ADD MSTORE POP JUMP JUMPDEST PUSH1 0x0 PUSH2 0x1308 PUSH1 0x16 DUP4 PUSH2 0xC54 JUMP JUMPDEST SWAP2 POP PUSH2 0x1313 DUP3 PUSH2 0x12D2 JUMP JUMPDEST PUSH1 0x20 DUP3 ADD SWAP1 POP SWAP2 SWAP1 POP JUMP JUMPDEST PUSH1 0x0 PUSH1 0x20 DUP3 ADD SWAP1 POP DUP2 DUP2 SUB PUSH1 0x0 DUP4 ADD MSTORE PUSH2 0x1337 DUP2 PUSH2 0x12FB JUMP JUMPDEST SWAP1 POP SWAP2 SWAP1 POP JUMP JUMPDEST PUSH1 0x0 PUSH1 0x60 DUP3 ADD SWAP1 POP PUSH2 0x1353 PUSH1 0x0 DUP4 ADD DUP7 PUSH2 0x11A1 JUMP JUMPDEST PUSH2 0x1360 PUSH1 0x20 DUP4 ADD DUP6 PUSH2 0x11A1 JUMP JUMPDEST PUSH2 0x136D PUSH1 0x40 DUP4 ADD DUP5 PUSH2 0x11A1 JUMP JUMPDEST SWAP5 SWAP4 POP POP POP POP JUMP JUMPDEST PUSH32 0x4F776E61626C653A2063616C6C6572206973206E6F7420746865206F776E6572 PUSH1 0x0 DUP3 ADD MSTORE POP JUMP JUMPDEST PUSH1 0x0 PUSH2 0x13AB PUSH1 0x20 DUP4 PUSH2 0xC54 JUMP JUMPDEST SWAP2 POP PUSH2 0x13B6 DUP3 PUSH2 0x1375 JUMP JUMPDEST PUSH1 0x20 DUP3 ADD SWAP1 POP SWAP2 SWAP1 POP JUMP JUMPDEST PUSH1 0x0 PUSH1 0x20 DUP3 ADD SWAP1 POP DUP2 DUP2 SUB PUSH1 0x0 DUP4 ADD MSTORE PUSH2 0x13DA DUP2 PUSH2 0x139E JUMP JUMPDEST SWAP1 POP SWAP2 SWAP1 POP JUMP JUMPDEST PUSH1 0x0 DUP3 DUP3 MSTORE PUSH1 0x20 DUP3 ADD SWAP1 POP SWAP3 SWAP2 POP POP JUMP JUMPDEST PUSH1 0x0 DUP2 SWAP1 POP SWAP2 SWAP1 POP JUMP JUMPDEST PUSH1 0x0 PUSH2 0x140B PUSH1 0x20 DUP5 ADD DUP5 PUSH2 0x990 JUMP JUMPDEST SWAP1 POP SWAP3 SWAP2 POP POP JUMP JUMPDEST PUSH2 0x141C DUP2 PUSH2 0x967 JUMP JUMPDEST DUP3 MSTORE POP POP JUMP JUMPDEST PUSH1 0x0 DUP1 REVERT JUMPDEST PUSH1 0x0 DUP1 REVERT JUMPDEST PUSH1 0x0 DUP1 REVERT JUMPDEST PUSH1 0x0 DUP1 DUP4 CALLDATALOAD PUSH1 0x1 PUSH1 0x20 SUB DUP5 CALLDATASIZE SUB SUB DUP2 SLT PUSH2 0x144E JUMPI PUSH2 0x144D PUSH2 0x142C JUMP JUMPDEST JUMPDEST DUP4 DUP2 ADD SWAP3 POP DUP3 CALLDATALOAD SWAP2 POP PUSH1 0x20 DUP4 ADD SWAP3 POP PUSH8 0xFFFFFFFFFFFFFFFF DUP3 GT ISZERO PUSH2 0x1476 JUMPI PUSH2 0x1475 PUSH2 0x1422 JUMP JUMPDEST JUMPDEST PUSH1 0x1 DUP3 MUL CALLDATASIZE SUB DUP4 SGT ISZERO PUSH2 0x148C JUMPI PUSH2 0x148B PUSH2 0x1427 JUMP JUMPDEST JUMPDEST POP SWAP3 POP SWAP3 SWAP1 POP JUMP JUMPDEST PUSH1 0x0 DUP3 DUP3 MSTORE PUSH1 0x20 DUP3 ADD SWAP1 POP SWAP3 SWAP2 POP POP JUMP JUMPDEST PUSH1 0x0 PUSH2 0x14B1 DUP4 DUP6 PUSH2 0x1494 JUMP JUMPDEST SWAP4 POP PUSH2 0x14BE DUP4 DUP6 DUP5 PUSH2 0xDC9 JUMP JUMPDEST PUSH2 0x14C7 DUP4 PUSH2 0xCD1 JUMP JUMPDEST DUP5 ADD SWAP1 POP SWAP4 SWAP3 POP POP POP JUMP JUMPDEST PUSH1 0x0 PUSH2 0x14E1 PUSH1 0x20 DUP5 ADD DUP5 PUSH2 0x9C6 JUMP JUMPDEST SWAP1 POP SWAP3 SWAP2 POP POP JUMP JUMPDEST PUSH2 0x14F2 DUP2 PUSH2 0x9A5 JUMP JUMPDEST DUP3 MSTORE POP POP JUMP JUMPDEST PUSH1 0x0 PUSH1 0x60 DUP4 ADD PUSH2 0x150B PUSH1 0x0 DUP5 ADD DUP5 PUSH2 0x13FC JUMP JUMPDEST PUSH2 0x1518 PUSH1 0x0 DUP7 ADD DUP3 PUSH2 0x1413 JUMP JUMPDEST POP PUSH2 0x1526 PUSH1 0x20 DUP5 ADD DUP5 PUSH2 0x1431 JUMP JUMPDEST DUP6 DUP4 SUB PUSH1 0x20 DUP8 ADD MSTORE PUSH2 0x1539 DUP4 DUP3 DUP5 PUSH2 0x14A5 JUMP JUMPDEST SWAP3 POP POP POP PUSH2 0x154A PUSH1 0x40 DUP5 ADD DUP5 PUSH2 0x14D2 JUMP JUMPDEST PUSH2 0x1557 PUSH1 0x40 DUP7 ADD DUP3 PUSH2 0x14E9 JUMP JUMPDEST POP DUP1 SWAP2 POP POP SWAP3 SWAP2 POP POP JUMP JUMPDEST PUSH1 0x0 PUSH2 0x156E DUP4 DUP4 PUSH2 0x14F8 JUMP JUMPDEST SWAP1 POP SWAP3 SWAP2 POP POP JUMP JUMPDEST PUSH1 0x0 DUP3 CALLDATALOAD PUSH1 0x1 PUSH1 0x60 SUB DUP4 CALLDATASIZE SUB SUB DUP2 SLT PUSH2 0x1592 JUMPI PUSH2 0x1591 PUSH2 0x142C JUMP JUMPDEST JUMPDEST DUP3 DUP2 ADD SWAP2 POP POP SWAP3 SWAP2 POP POP JUMP JUMPDEST PUSH1 0x0 PUSH1 0x20 DUP3 ADD SWAP1 POP SWAP2 SWAP1 POP JUMP JUMPDEST PUSH1 0x0 PUSH2 0x15B7 DUP4 DUP6 PUSH2 0x13E1 JUMP JUMPDEST SWAP4 POP DUP4 PUSH1 0x20 DUP5 MUL DUP6 ADD PUSH2 0x15C9 DUP5 PUSH2 0x13F2 JUMP JUMPDEST DUP1 PUSH1 0x0 JUMPDEST DUP8 DUP2 LT ISZERO PUSH2 0x160D JUMPI DUP5 DUP5 SUB DUP10 MSTORE PUSH2 0x15E4 DUP3 DUP5 PUSH2 0x1576 JUMP JUMPDEST PUSH2 0x15EE DUP6 DUP3 PUSH2 0x1562 JUMP JUMPDEST SWAP5 POP PUSH2 0x15F9 DUP4 PUSH2 0x159E JUMP JUMPDEST SWAP3 POP PUSH1 0x20 DUP11 ADD SWAP10 POP POP PUSH1 0x1 DUP2 ADD SWAP1 POP PUSH2 0x15CD JUMP JUMPDEST POP DUP3 SWAP8 POP DUP8 SWAP5 POP POP POP POP POP SWAP4 SWAP3 POP POP POP JUMP JUMPDEST PUSH1 0x0 PUSH1 0x40 DUP3 ADD SWAP1 POP DUP2 DUP2 SUB PUSH1 0x0 DUP4 ADD MSTORE PUSH2 0x163A DUP2 DUP6 DUP8 PUSH2 0x15AB JUMP JUMPDEST SWAP1 POP PUSH2 0x1649 PUSH1 0x20 DUP4 ADD DUP5 PUSH2 0x11A1 JUMP JUMPDEST SWAP5 SWAP4 POP POP POP POP JUMP JUMPDEST PUSH1 0x0 DUP3 DUP3 MSTORE PUSH1 0x20 DUP3 ADD SWAP1 POP SWAP3 SWAP2 POP POP JUMP JUMPDEST PUSH1 0x0 PUSH2 0x166D DUP3 PUSH2 0x1008 JUMP JUMPDEST PUSH2 0x1677 DUP2 DUP6 PUSH2 0x1651 JUMP JUMPDEST SWAP4 POP PUSH2 0x1687 DUP2 DUP6 PUSH1 0x20 DUP7 ADD PUSH2 0x101E JUMP JUMPDEST PUSH2 0x1690 DUP2 PUSH2 0xCD1 JUMP JUMPDEST DUP5 ADD SWAP2 POP POP SWAP3 SWAP2 POP POP JUMP JUMPDEST PUSH1 0x0 DUP2 SWAP1 POP SWAP2 SWAP1 POP JUMP JUMPDEST PUSH1 0x0 PUSH2 0xFFFF DUP3 AND SWAP1 POP SWAP2 SWAP1 POP JUMP JUMPDEST PUSH1 0x0 PUSH2 0x16CE PUSH2 0x16C9 PUSH2 0x16C4 DUP5 PUSH2 0x169B JUMP JUMPDEST PUSH2 0x8D9 JUMP JUMPDEST PUSH2 0x16A5 JUMP JUMPDEST SWAP1 POP SWAP2 SWAP1 POP JUMP JUMPDEST PUSH2 0x16DE DUP2 PUSH2 0x16B3 JUMP JUMPDEST DUP3 MSTORE POP POP JUMP JUMPDEST PUSH1 0x0 PUSH1 0xA0 DUP3 ADD SWAP1 POP PUSH2 0x16F9 PUSH1 0x0 DUP4 ADD DUP9 PUSH2 0xB4C JUMP JUMPDEST PUSH2 0x1706 PUSH1 0x20 DUP4 ADD DUP8 PUSH2 0xB4C JUMP JUMPDEST PUSH2 0x1713 PUSH1 0x40 DUP4 ADD DUP7 PUSH2 0x11A1 JUMP JUMPDEST DUP2 DUP2 SUB PUSH1 0x60 DUP4 ADD MSTORE PUSH2 0x1725 DUP2 DUP6 PUSH2 0x1662 JUMP JUMPDEST SWAP1 POP PUSH2 0x1734 PUSH1 0x80 DUP4 ADD DUP5 PUSH2 0x16D5 JUMP JUMPDEST SWAP7 SWAP6 POP POP POP POP POP POP JUMP INVALID LOG2 PUSH5 0x6970667358 0x22 SLT KECCAK256 GASPRICE DUP10 0xD1 POP 0xD 0xDE 0x2E 0x21 SWAP12 0xF 0xC1 DELEGATECALL 0xEF 0x21 LOG4 SWAP16 0xDA DUP1 DUP15 DUP4 LT 0xE8 PUSH2 0xFE2A TSTORE PUSH19 0x4D4D31DCFF64736F6C634300081C0033000000 "},"methodIdentifiers":{"ADDRESSES_PROVIDER()":"0542975c","POOL()":"7535d246","executeOperation(address,uint256,uint256,address,bytes)":"1b11d0ff","initiateFlashArb(address,uint256,(address,bytes,uint256)[],uint256)":"fdaec310","owner()":"8da5cb5b"}}}}}