{
  "_format": "hh-sol-artifact-1",
  "contractName": "FlashArbitrageur",
  "sourceName": "contracts/FlashArbitrageur.sol",
  "abi": [
    {
      "inputs": [
        {
          "internalType": "address",
          "name": "addressesProvider",
          "type": "address"
        }
      ],
      "stateMutability": "nonpayable",
      "type": "constructor"
    },
    {
      "inputs": [],
      "name": "DeadlineExpired",
      "type": "error"
    },
    {
      "inputs": [],
      "name": "NotPool",
      "type": "error"
    },
    {
      "inputs": [],
      "name": "Unprofitable",
      "type": "error"
    },
    {
      "anonymous": false,
      "inputs": [
        {
          "indexed": true,
          "internalType": "address",
          "name": "previousOwner",
          "type": "address"
        },
        {
          "indexed": true,
          "internalType": "address",
          "name": "newOwner",
          "type": "address"
        }
      ],
      "name": "OwnershipTransferred",
      "type": "event"
    },
    {
      "anonymous": false,
      "inputs": [
        {
          "indexed": true,
          "internalType": "address",
          "name": "asset",
          "type": "address"
        },
        {
          "indexed": false,
          "internalType": "uint256",
          "name": "amountBorrowed",
          "type": "uint256"
        },
        {
          "indexed": false,
          "internalType": "uint256",
          "name": "premium",
          "type": "uint256"
        },
        {
          "indexed": false,
          "internalType": "uint256",
          "name": "profitSent",
          "type": "uint256"
        }
      ],
      "name": "ProfitRealized",
      "type": "event"
    },
    {
      "inputs": [],
      "name": "ADDRESSES_PROVIDER",
      "outputs": [
        {
          "internalType": "contract IPoolAddressesProvider",
          "name": "",
          "type": "address"
        }
      ],
      "stateMutability": "view",
      "type": "function"
    },
    {
      "inputs": [],
      "name": "POOL",
      "outputs": [
        {
          "internalType": "contract IPool",
          "name": "",
          "type": "address"
        }
      ],
      "stateMutability": "view",
      "type": "function"
    },
    {
      "inputs": [
        {
          "internalType": "address",
          "name": "asset",
          "type": "address"
        },
        {
          "internalType": "uint256",
          "name": "amount",
          "type": "uint256"
        },
        {
          "internalType": "uint256",
          "name": "premium",
          "type": "uint256"
        },
        {
          "internalType": "address",
          "name": "",
          "type": "address"
        },
        {
          "internalType": "bytes",
          "name": "params",
          "type": "bytes"
        }
      ],
      "name": "executeOperation",
      "outputs": [
        {
          "internalType": "bool",
          "name": "",
          "type": "bool"
        }
      ],
      "stateMutability": "nonpayable",
      "type": "function"
    },
    {
      "inputs": [
        {
          "internalType": "address",
          "name": "asset",
          "type": "address"
        },
        {
          "internalType": "uint256",
          "name": "amount",
          "type": "uint256"
        },
        {
          "components": [
            {
              "internalType": "address",
              "name": "target",
              "type": "address"
            },
            {
              "internalType": "bytes",
              "name": "data",
              "type": "bytes"
            },
            {
              "internalType": "uint256",
              "name": "value",
              "type": "uint256"
            }
          ],
          "internalType": "struct FlashArbitrageur.Swap[]",
          "name": "swaps",
          "type": "tuple[]"
        },
        {
          "internalType": "uint256",
          "name": "deadline",
          "type": "uint256"
        }
      ],
      "name": "initiateFlashArb",
      "outputs": [],
      "stateMutability": "nonpayable",
      "type": "function"
    },
    {
      "inputs": [],
      "name": "owner",
      "outputs": [
        {
          "internalType": "address",
          "name": "",
          "type": "address"
        }
      ],
      "stateMutability": "view",
      "type": "function"
    },
    {
      "stateMutability": "payable",
      "type": "receive"
    }
  ],
  "bytecode": "0x60c060405234801561001057600080fd5b50604051610ebb380380610ebb83398101604081905261002f9161010c565b610038336100bc565b6001600160a01b03811660a08190526040805163026b1d5f60e01b8152905183929163026b1d5f9160048083019260209291908290030181865afa158015610084573d6000803e3d6000fd5b505050506040513d601f19601f820116820180604052508101906100a8919061010c565b6001600160a01b03166080525061013c9050565b600080546001600160a01b038381166001600160a01b0319831681178455604051919092169283917f8be0079c531659141344cd1fd0a4f28419497f9722a3daafe3b4186f6b6457e09190a35050565b60006020828403121561011e57600080fd5b81516001600160a01b038116811461013557600080fd5b9392505050565b60805160a051610d476101746000396000607c01526000818160fd0152818161016c0152818161040001526107360152610d476000f3fe60806040526004361061005e5760003560e01c80637535d246116100435780637535d246146100eb5780638da5cb5b1461011f578063fdaec3101461013d57600080fd5b80630542975c1461006a5780631b11d0ff146100bb57600080fd5b3661006557005b600080fd5b34801561007657600080fd5b5061009e7f000000000000000000000000000000000000000000000000000000000000000081565b6040516001600160a01b0390911681526020015b60405180910390f35b3480156100c757600080fd5b506100db6100d63660046107cf565b61015f565b60405190151581526020016100b2565b3480156100f757600080fd5b5061009e7f000000000000000000000000000000000000000000000000000000000000000081565b34801561012b57600080fd5b506000546001600160a01b031661009e565b34801561014957600080fd5b5061015d610158366004610875565b610630565b005b6000336001600160a01b037f000000000000000000000000000000000000000000000000000000000000000016146101aa57604051636f61f64160e01b815260040160405180910390fd5b600154156101e95760405162461bcd60e51b81526020600482015260076024820152662922a2a72a22a960c91b60448201526064015b60405180910390fd5b600180556000806101fc84860186610977565b915091508042111561022157604051631ab7da6b60e01b815260040160405180910390fd5b60005b825181101561034d5760008084838151811061024257610242610adf565b6020026020010151600001516001600160a01b031685848151811061026957610269610adf565b60200260200101516040015186858151811061028757610287610adf565b6020026020010151602001516040516102a09190610b19565b60006040518083038185875af1925050503d80600081146102dd576040519150601f19603f3d011682016040523d82523d6000602084013e6102e2565b606091505b509150915081610343578051156102fb57805160208201fd5b60405162461bcd60e51b815260206004820152600f60248201527f4445582063616c6c206661696c6564000000000000000000000000000000000060448201526064016101e0565b5050600101610224565b506040516370a0823160e01b81523060048201526000906001600160a01b038b16906370a0823190602401602060405180830381865afa158015610395573d6000803e3d6000fd5b505050506040513d601f19601f820116820180604052508101906103b99190610b35565b905060006103c7898b610b64565b90508082116103e957604051630b4cb19960e01b815260040160405180910390fd5b60405163095ea7b360e01b81526001600160a01b037f000000000000000000000000000000000000000000000000000000000000000081166004830152602482018390528c169063095ea7b3906044016020604051808303816000875af1158015610458573d6000803e3d6000fd5b505050506040513d601f19601f8201168201806040525081019061047c9190610b7d565b6104c85760405162461bcd60e51b815260206004820152600e60248201527f417070726f7665206661696c656400000000000000000000000000000000000060448201526064016101e0565b60006104d48284610ba6565b90508b6001600160a01b031663a9059cbb6104f76000546001600160a01b031690565b6040517fffffffff0000000000000000000000000000000000000000000000000000000060e084901b1681526001600160a01b039091166004820152602481018490526044016020604051808303816000875af115801561055c573d6000803e3d6000fd5b505050506040513d601f19601f820116820180604052508101906105809190610b7d565b6105cc5760405162461bcd60e51b815260206004820152601660248201527f50726f666974207472616e73666572206661696c65640000000000000000000060448201526064016101e0565b604080518c8152602081018c90529081018290526001600160a01b038d16907ffd5fd7ac9f04bce793f6342899f2b330259643496c658eb97d0da1b511ad3c909060600160405180910390a260019550505050505060006001559695505050505050565b336106436000546001600160a01b031690565b6001600160a01b0316146106995760405162461bcd60e51b815260206004820181905260248201527f4f776e61626c653a2063616c6c6572206973206e6f7420746865206f776e657260448201526064016101e0565b600154156106d35760405162461bcd60e51b81526020600482015260076024820152662922a2a72a22a960c91b60448201526064016101e0565b60018055428110156106f857604051631ab7da6b60e01b815260040160405180910390fd5b600083838360405160200161070f93929190610bb9565b60408051601f19818403018152908290526310ac2ddf60e21b825291506001600160a01b037f000000000000000000000000000000000000000000000000000000000000000016906342b0b77c906107749030908a908a908790600090600401610cb0565b600060405180830381600087803b15801561078e57600080fd5b505af11580156107a2573d6000803e3d6000fd5b505060006001555050505050505050565b80356001600160a01b03811681146107ca57600080fd5b919050565b60008060008060008060a087890312156107e857600080fd5b6107f1876107b3565b9550602087013594506040870135935061080d606088016107b3565b9250608087013567ffffffffffffffff8082111561082a57600080fd5b818901915089601f83011261083e57600080fd5b81358181111561084d57600080fd5b8a602082850101111561085f57600080fd5b6020830194508093505050509295509295509295565b60008060008060006080868803121561088d57600080fd5b610896866107b3565b945060208601359350604086013567ffffffffffffffff808211156108ba57600080fd5b818801915088601f8301126108ce57600080fd5b8135818111156108dd57600080fd5b8960208260051b85010111156108f257600080fd5b96999598505060200195606001359392505050565b634e487b7160e01b600052604160045260246000fd5b6040516060810167ffffffffffffffff8111828210171561094057610940610907565b60405290565b604051601f8201601f1916810167ffffffffffffffff8111828210171561096f5761096f610907565b604052919050565b6000806040838503121561098a57600080fd5b823567ffffffffffffffff808211156109a257600080fd5b818501915085601f8301126109b657600080fd5b81356020828211156109ca576109ca610907565b8160051b6109d9828201610946565b928352848101820192828101908a8511156109f357600080fd5b83870192505b84831015610ace57823586811115610a1057600080fd5b8701601f196060828e0382011215610a2757600080fd5b610a2f61091d565b610a3a8784016107b3565b8152604083013589811115610a4e57600080fd5b8301603f81018f13610a5f57600080fd5b878101358a811115610a7357610a73610907565b610a838985601f84011601610946565b93508084528f6040828401011115610a9a57600080fd5b80604083018a86013760009084018901525080870191909152606091909101356040820152825291830191908301906109f9565b9a9890920135985050505050505050565b634e487b7160e01b600052603260045260246000fd5b60005b83811015610b10578181015183820152602001610af8565b50506000910152565b60008251610b2b818460208701610af5565b9190910192915050565b600060208284031215610b4757600080fd5b5051919050565b634e487b7160e01b600052601160045260246000fd5b80820180821115610b7757610b77610b4e565b92915050565b600060208284031215610b8f57600080fd5b81518015158114610b9f57600080fd5b9392505050565b81810381811115610b7757610b77610b4e565b60408082528181018490526000906060808401600587901b8501820188855b89811015610c9957878303605f190184528135368c9003605e19018112610bfe57600080fd5b8b016001600160a01b03610c11826107b3565b168452602080820135601e19833603018112610c2c57600080fd5b8201818101903567ffffffffffffffff811115610c4857600080fd5b803603821315610c5757600080fd5b8883880152808988015260808183828a01376000888301820152938a01358a88015296820196601f01601f191690950190910193509190910190600101610bd8565b505080945050505050826020830152949350505050565b60006001600160a01b03808816835280871660208401525084604083015260a0606083015283518060a0840152610cee8160c0850160208801610af5565b61ffff93909316608083015250601f91909101601f19160160c00194935050505056fea264697066735822122077def3b266e6a867d81c3a043a57f246e0a5c45cb9144d92d1a4ab3e0cd3304964736f6c63430008140033",
  "linkReferences": {},
  "deployedLinkReferences": {}
}