{
  "_format": "hh-sol-artifact-1",
  "contractName": "FlashArbitrageur",
  "sourceName": "contracts/FlashArbitrageur.sol",
  "abi": [
    {
      "inputs": [
        {
          "internalType": "address",
          "name": "addressesProvider",
          "type": "address"
        }
      ],
      "stateMutability": "nonpayable",
      "type": "constructor"
    },
    {
      "inputs": [],
      "name": "DeadlineExpired",
      "type": "error"
    },
    {
      "inputs": [],
      "name": "NotPool",
      "type": "error"
    },
    {
      "inputs": [],
      "name": "Unprofitable",
      "type": "error"
    },
    {
      "anonymous": false,
      "inputs": [
        {
          "indexed": true,
          "internalType": "address",
          "name": "previousOwner",
          "type": "address"
        },
        {
          "indexed": true,
          "internalType": "address",
          "name": "newOwner",
          "type": "address"
        }
      ],
      "name": "OwnershipTransferred",
      "type": "event"
    },
    {
      "anonymous": false,
      "inputs": [
        {
          "indexed": true,
          "internalType": "address",
          "name": "asset",
          "type": "address"
        },
        {
          "indexed": false,
          "internalType": "uint256",
          "name": "amountBorrowed",
          "type": "uint256"
        },
        {
          "indexed": false,
          "internalType": "uint256",
          "name": "premium",
          "type": "uint256"
        },
        {
          "indexed": false,
          "internalType": "uint256",
          "name": "profitSent",
          "type": "uint256"
        }
      ],
      "name": "ProfitRealized",
      "type": "event"
    },
    {
      "inputs": [],
      "name": "ADDRESSES_PROVIDER",
      "outputs": [
        {
          "internalType": "contract IPoolAddressesProvider",
          "name": "",
          "type": "address"
        }
      ],
      "stateMutability": "view",
      "type": "function"
    },
    {
      "inputs": [],
      "name": "POOL",
      "outputs": [
        {
          "internalType": "contract IPool",
          "name": "",
          "type": "address"
        }
      ],
      "stateMutability": "view",
      "type": "function"
    },
    {
      "inputs": [
        {
          "internalType": "address",
          "name": "asset",
          "type": "address"
        },
        {
          "internalType": "uint256",
          "name": "amount",
          "type": "uint256"
        },
        {
          "internalType": "uint256",
          "name": "premium",
          "type": "uint256"
        },
        {
          "internalType": "address",
          "name": "",
          "type": "address"
        },
        {
          "internalType": "bytes",
          "name": "params",
          "type": "bytes"
        }
      ],
      "name": "executeOperation",
      "outputs": [
        {
          "internalType": "bool",
          "name": "",
          "type": "bool"
        }
      ],
      "stateMutability": "nonpayable",
      "type": "function"
    },
    {
      "inputs": [
        {
          "internalType": "address",
          "name": "asset",
          "type": "address"
        },
        {
          "internalType": "uint256",
          "name": "amount",
          "type": "uint256"
        },
        {
          "components": [
            {
              "internalType": "address",
              "name": "target",
              "type": "address"
            },
            {
              "internalType": "bytes",
              "name": "data",
              "type": "bytes"
            },
            {
              "internalType": "uint256",
              "name": "value",
              "type": "uint256"
            }
          ],
          "internalType": "struct FlashArbitrageur.Swap[]",
          "name": "swaps",
          "type": "tuple[]"
        },
        {
          "internalType": "uint256",
          "name": "deadline",
          "type": "uint256"
        }
      ],
      "name": "initiateFlashArb",
      "outputs": [],
      "stateMutability": "nonpayable",
      "type": "function"
    },
    {
      "inputs": [],
      "name": "owner",
      "outputs": [
        {
          "internalType": "address",
          "name": "",
          "type": "address"
        }
      ],
      "stateMutability": "view",
      "type": "function"
    },
    {
      "stateMutability": "payable",
      "type": "receive"
    }
  ],
  "bytecode": "0x60c060405234801561001057600080fd5b50604051611a25380380611a258339818101604052810190610032919061024a565b6100413361012360201b60201c565b60008190508073ffffffffffffffffffffffffffffffffffffffff1660a08173ffffffffffffffffffffffffffffffffffffffff16815250508073ffffffffffffffffffffffffffffffffffffffff1663026b1d5f6040518163ffffffff1660e01b8152600401602060405180830381865afa1580156100c5573d6000803e3d6000fd5b505050506040513d601f19601f820116820180604052508101906100e9919061024a565b73ffffffffffffffffffffffffffffffffffffffff1660808173ffffffffffffffffffffffffffffffffffffffff16815250505050610277565b60008060009054906101000a900473ffffffffffffffffffffffffffffffffffffffff169050816000806101000a81548173ffffffffffffffffffffffffffffffffffffffff021916908373ffffffffffffffffffffffffffffffffffffffff1602179055508173ffffffffffffffffffffffffffffffffffffffff168173ffffffffffffffffffffffffffffffffffffffff167f8be0079c531659141344cd1fd0a4f28419497f9722a3daafe3b4186f6b6457e060405160405180910390a35050565b600080fd5b600073ffffffffffffffffffffffffffffffffffffffff82169050919050565b6000610217826101ec565b9050919050565b6102278161020c565b811461023257600080fd5b50565b6000815190506102448161021e565b92915050565b6000602082840312156102605761025f6101e7565b5b600061026e84828501610235565b91505092915050565b60805160a0516117746102b16000396000610143015260008181610169015281816104a5015281816106a7015261081701526117746000f3fe60806040526004361061004e5760003560e01c80630542975c1461005a5780631b11d0ff146100855780637535d246146100c25780638da5cb5b146100ed578063fdaec3101461011857610055565b3661005557005b600080fd5b34801561006657600080fd5b5061006f610141565b60405161007c9190610938565b60405180910390f35b34801561009157600080fd5b506100ac60048036038101906100a79190610a40565b610165565b6040516100b99190610af5565b60405180910390f35b3480156100ce57600080fd5b506100d76106a5565b6040516100e49190610b31565b60405180910390f35b3480156100f957600080fd5b506101026106c9565b60405161010f9190610b5b565b60405180910390f35b34801561012457600080fd5b5061013f600480360381019061013a9190610bcc565b6106f2565b005b7f000000000000000000000000000000000000000000000000000000000000000081565b60007f000000000000000000000000000000000000000000000000000000000000000073ffffffffffffffffffffffffffffffffffffffff163373ffffffffffffffffffffffffffffffffffffffff16146101ec576040517f6f61f64100000000000000000000000000000000000000000000000000000000815260040160405180910390fd5b600060015414610231576040517f08c379a000000000000000000000000000000000000000000000000000000000815260040161022890610cb1565b60405180910390fd5b60018081905550600080848481019061024a9190610f7d565b9150915080421115610288576040517f1ab7da6b00000000000000000000000000000000000000000000000000000000815260040160405180910390fd5b60005b82518110156103bf576000808483815181106102aa576102a9610fd9565b5b60200260200101516000015173ffffffffffffffffffffffffffffffffffffffff168584815181106102df576102de610fd9565b5b6020026020010151604001518685815181106102fe576102fd610fd9565b5b6020026020010151602001516040516103179190611079565b60006040518083038185875af1925050503d8060008114610354576040519150601f19603f3d011682016040523d82523d6000602084013e610359565b606091505b5091509150816103b05760008151111561037557805160208201fd5b6040517f08c379a00000000000000000000000000000000000000000000000000000000081526004016103a7906110dc565b60405180910390fd5b5050808060010191505061028b565b5060008973ffffffffffffffffffffffffffffffffffffffff166370a08231306040518263ffffffff1660e01b81526004016103fb9190610b5b565b602060405180830381865afa158015610418573d6000803e3d6000fd5b505050506040513d601f19601f8201168201806040525081019061043c9190611111565b90506000888a61044c919061116d565b9050808211610487576040517f0b4cb19900000000000000000000000000000000000000000000000000000000815260040160405180910390fd5b8a73ffffffffffffffffffffffffffffffffffffffff1663095ea7b37f0000000000000000000000000000000000000000000000000000000000000000836040518363ffffffff1660e01b81526004016104e29291906111b0565b6020604051808303816000875af1158015610501573d6000803e3d6000fd5b505050506040513d601f19601f820116820180604052508101906105259190611205565b610564576040517f08c379a000000000000000000000000000000000000000000000000000000000815260040161055b9061127e565b60405180910390fd5b60008183610572919061129e565b90508b73ffffffffffffffffffffffffffffffffffffffff1663a9059cbb6105986106c9565b836040518363ffffffff1660e01b81526004016105b69291906111b0565b6020604051808303816000875af11580156105d5573d6000803e3d6000fd5b505050506040513d601f19601f820116820180604052508101906105f99190611205565b610638576040517f08c379a000000000000000000000000000000000000000000000000000000000815260040161062f9061131e565b60405180910390fd5b8b73ffffffffffffffffffffffffffffffffffffffff167ffd5fd7ac9f04bce793f6342899f2b330259643496c658eb97d0da1b511ad3c908c8c846040516106829392919061133e565b60405180910390a260019550505050505060006001819055509695505050505050565b7f000000000000000000000000000000000000000000000000000000000000000081565b60008060009054906101000a900473ffffffffffffffffffffffffffffffffffffffff16905090565b3373ffffffffffffffffffffffffffffffffffffffff166107116106c9565b73ffffffffffffffffffffffffffffffffffffffff1614610767576040517f08c379a000000000000000000000000000000000000000000000000000000000815260040161075e906113c1565b60405180910390fd5b6000600154146107ac576040517f08c379a00000000000000000000000000000000000000000000000000000000081526004016107a390610cb1565b60405180910390fd5b60018081905550804211156107ed576040517f1ab7da6b00000000000000000000000000000000000000000000000000000000815260040160405180910390fd5b60008383836040516020016108049392919061161f565b60405160208183030381529060405290507f000000000000000000000000000000000000000000000000000000000000000073ffffffffffffffffffffffffffffffffffffffff166342b0b77c3088888560006040518663ffffffff1660e01b81526004016108779594939291906116e4565b600060405180830381600087803b15801561089157600080fd5b505af11580156108a5573d6000803e3d6000fd5b505050505060006001819055505050505050565b600073ffffffffffffffffffffffffffffffffffffffff82169050919050565b6000819050919050565b60006108fe6108f96108f4846108b9565b6108d9565b6108b9565b9050919050565b6000610910826108e3565b9050919050565b600061092282610905565b9050919050565b61093281610917565b82525050565b600060208201905061094d6000830184610929565b92915050565b6000604051905090565b600080fd5b600080fd5b6000610972826108b9565b9050919050565b61098281610967565b811461098d57600080fd5b50565b60008135905061099f81610979565b92915050565b6000819050919050565b6109b8816109a5565b81146109c357600080fd5b50565b6000813590506109d5816109af565b92915050565b600080fd5b600080fd5b600080fd5b60008083601f840112610a00576109ff6109db565b5b8235905067ffffffffffffffff811115610a1d57610a1c6109e0565b5b602083019150836001820283011115610a3957610a386109e5565b5b9250929050565b60008060008060008060a08789031215610a5d57610a5c61095d565b5b6000610a6b89828a01610990565b9650506020610a7c89828a016109c6565b9550506040610a8d89828a016109c6565b9450506060610a9e89828a01610990565b935050608087013567ffffffffffffffff811115610abf57610abe610962565b5b610acb89828a016109ea565b92509250509295509295509295565b60008115159050919050565b610aef81610ada565b82525050565b6000602082019050610b0a6000830184610ae6565b92915050565b6000610b1b82610905565b9050919050565b610b2b81610b10565b82525050565b6000602082019050610b466000830184610b22565b92915050565b610b5581610967565b82525050565b6000602082019050610b706000830184610b4c565b92915050565b60008083601f840112610b8c57610b8b6109db565b5b8235905067ffffffffffffffff811115610ba957610ba86109e0565b5b602083019150836020820283011115610bc557610bc46109e5565b5b9250929050565b600080600080600060808688031215610be857610be761095d565b5b6000610bf688828901610990565b9550506020610c07888289016109c6565b945050604086013567ffffffffffffffff811115610c2857610c27610962565b5b610c3488828901610b76565b93509350506060610c47888289016109c6565b9150509295509295909350565b600082825260208201905092915050565b7f5245454e54455200000000000000000000000000000000000000000000000000600082015250565b6000610c9b600783610c54565b9150610ca682610c65565b602082019050919050565b60006020820190508181036000830152610cca81610c8e565b9050919050565b6000601f19601f8301169050919050565b7f4e487b7100000000000000000000000000000000000000000000000000000000600052604160045260246000fd5b610d1a82610cd1565b810181811067ffffffffffffffff82111715610d3957610d38610ce2565b5b80604052505050565b6000610d4c610953565b9050610d588282610d11565b919050565b600067ffffffffffffffff821115610d7857610d77610ce2565b5b602082029050602081019050919050565b600080fd5b600080fd5b600080fd5b600067ffffffffffffffff821115610db357610db2610ce2565b5b610dbc82610cd1565b9050602081019050919050565b82818337600083830152505050565b6000610deb610de684610d98565b610d42565b905082815260208101848484011115610e0757610e06610d93565b5b610e12848285610dc9565b509392505050565b600082601f830112610e2f57610e2e6109db565b5b8135610e3f848260208601610dd8565b91505092915050565b600060608284031215610e5e57610e5d610d89565b5b610e686060610d42565b90506000610e7884828501610990565b600083015250602082013567ffffffffffffffff811115610e9c57610e9b610d8e565b5b610ea884828501610e1a565b6020830152506040610ebc848285016109c6565b60408301525092915050565b6000610edb610ed684610d5d565b610d42565b90508083825260208201905060208402830185811115610efe57610efd6109e5565b5b835b81811015610f4557803567ffffffffffffffff811115610f2357610f226109db565b5b808601610f308982610e48565b85526020850194505050602081019050610f00565b5050509392505050565b600082601f830112610f6457610f636109db565b5b8135610f74848260208601610ec8565b91505092915050565b60008060408385031215610f9457610f9361095d565b5b600083013567ffffffffffffffff811115610fb257610fb1610962565b5b610fbe85828601610f4f565b9250506020610fcf858286016109c6565b9150509250929050565b7f4e487b7100000000000000000000000000000000000000000000000000000000600052603260045260246000fd5b600081519050919050565b600081905092915050565b60005b8381101561103c578082015181840152602081019050611021565b60008484015250505050565b600061105382611008565b61105d8185611013565b935061106d81856020860161101e565b80840191505092915050565b60006110858284611048565b915081905092915050565b7f4445582063616c6c206661696c65640000000000000000000000000000000000600082015250565b60006110c6600f83610c54565b91506110d182611090565b602082019050919050565b600060208201905081810360008301526110f5816110b9565b9050919050565b60008151905061110b816109af565b92915050565b6000602082840312156111275761112661095d565b5b6000611135848285016110fc565b91505092915050565b7f4e487b7100000000000000000000000000000000000000000000000000000000600052601160045260246000fd5b6000611178826109a5565b9150611183836109a5565b925082820190508082111561119b5761119a61113e565b5b92915050565b6111aa816109a5565b82525050565b60006040820190506111c56000830185610b4c565b6111d260208301846111a1565b9392505050565b6111e281610ada565b81146111ed57600080fd5b50565b6000815190506111ff816111d9565b92915050565b60006020828403121561121b5761121a61095d565b5b6000611229848285016111f0565b91505092915050565b7f417070726f7665206661696c6564000000000000000000000000000000000000600082015250565b6000611268600e83610c54565b915061127382611232565b602082019050919050565b600060208201905081810360008301526112978161125b565b9050919050565b60006112a9826109a5565b91506112b4836109a5565b92508282039050818111156112cc576112cb61113e565b5b92915050565b7f50726f666974207472616e73666572206661696c656400000000000000000000600082015250565b6000611308601683610c54565b9150611313826112d2565b602082019050919050565b60006020820190508181036000830152611337816112fb565b9050919050565b600060608201905061135360008301866111a1565b61136060208301856111a1565b61136d60408301846111a1565b949350505050565b7f4f776e61626c653a2063616c6c6572206973206e6f7420746865206f776e6572600082015250565b60006113ab602083610c54565b91506113b682611375565b602082019050919050565b600060208201905081810360008301526113da8161139e565b9050919050565b600082825260208201905092915050565b6000819050919050565b600061140b6020840184610990565b905092915050565b61141c81610967565b82525050565b600080fd5b600080fd5b600080fd5b6000808335600160200384360303811261144e5761144d61142c565b5b83810192508235915060208301925067ffffffffffffffff82111561147657611475611422565b5b60018202360383131561148c5761148b611427565b5b509250929050565b600082825260208201905092915050565b60006114b18385611494565b93506114be838584610dc9565b6114c783610cd1565b840190509392505050565b60006114e160208401846109c6565b905092915050565b6114f2816109a5565b82525050565b60006060830161150b60008401846113fc565b6115186000860182611413565b506115266020840184611431565b85830360208701526115398382846114a5565b9250505061154a60408401846114d2565b61155760408601826114e9565b508091505092915050565b600061156e83836114f8565b905092915050565b6000823560016060038336030381126115925761159161142c565b5b82810191505092915050565b6000602082019050919050565b60006115b783856113e1565b9350836020840285016115c9846113f2565b8060005b8781101561160d5784840389526115e48284611576565b6115ee8582611562565b94506115f98361159e565b925060208a019950506001810190506115cd565b50829750879450505050509392505050565b6000604082019050818103600083015261163a8185876115ab565b905061164960208301846111a1565b949350505050565b600082825260208201905092915050565b600061166d82611008565b6116778185611651565b935061168781856020860161101e565b61169081610cd1565b840191505092915050565b6000819050919050565b600061ffff82169050919050565b60006116ce6116c96116c48461169b565b6108d9565b6116a5565b9050919050565b6116de816116b3565b82525050565b600060a0820190506116f96000830188610b4c565b6117066020830187610b4c565b61171360408301866111a1565b81810360608301526117258185611662565b905061173460808301846116d5565b969550505050505056fea26469706673582212203a89d1500dde2e219b0fc1f4ef21a49fda808e8310e861fe2a5d724d4d31dcff64736f6c634300081c0033",
  "linkReferences": {},
  "deployedLinkReferences": {}
}